{
	"_format": "hh-sol-artifact-1",
	"contractName": "Domains",
	"sourceName": "contracts/Domains.sol",
	"abi": [
		{
			"inputs": [
				{
					"internalType": "string",
					"name": "_tld",
					"type": "string"
				}
			],
			"stateMutability": "payable",
			"type": "constructor"
		},
		{
			"inputs": [],
			"name": "AlreadyRegistered",
			"type": "error"
		},
		{
			"inputs": [
				{
					"internalType": "string",
					"name": "name",
					"type": "string"
				}
			],
			"name": "InvalidName",
			"type": "error"
		},
		{
			"inputs": [],
			"name": "Unauthorized",
			"type": "error"
		},
		{
			"anonymous": false,
			"inputs": [
				{
					"indexed": true,
					"internalType": "address",
					"name": "owner",
					"type": "address"
				},
				{
					"indexed": true,
					"internalType": "address",
					"name": "approved",
					"type": "address"
				},
				{
					"indexed": true,
					"internalType": "uint256",
					"name": "tokenId",
					"type": "uint256"
				}
			],
			"name": "Approval",
			"type": "event"
		},
		{
			"anonymous": false,
			"inputs": [
				{
					"indexed": true,
					"internalType": "address",
					"name": "owner",
					"type": "address"
				},
				{
					"indexed": true,
					"internalType": "address",
					"name": "operator",
					"type": "address"
				},
				{
					"indexed": false,
					"internalType": "bool",
					"name": "approved",
					"type": "bool"
				}
			],
			"name": "ApprovalForAll",
			"type": "event"
		},
		{
			"anonymous": false,
			"inputs": [
				{
					"indexed": true,
					"internalType": "address",
					"name": "from",
					"type": "address"
				},
				{
					"indexed": true,
					"internalType": "address",
					"name": "to",
					"type": "address"
				},
				{
					"indexed": true,
					"internalType": "uint256",
					"name": "tokenId",
					"type": "uint256"
				}
			],
			"name": "Transfer",
			"type": "event"
		},
		{
			"inputs": [
				{
					"internalType": "address",
					"name": "to",
					"type": "address"
				},
				{
					"internalType": "uint256",
					"name": "tokenId",
					"type": "uint256"
				}
			],
			"name": "approve",
			"outputs": [],
			"stateMutability": "nonpayable",
			"type": "function"
		},
		{
			"inputs": [
				{
					"internalType": "address",
					"name": "owner",
					"type": "address"
				}
			],
			"name": "balanceOf",
			"outputs": [
				{
					"internalType": "uint256",
					"name": "",
					"type": "uint256"
				}
			],
			"stateMutability": "view",
			"type": "function"
		},
		{
			"inputs": [
				{
					"internalType": "string",
					"name": "",
					"type": "string"
				}
			],
			"name": "domains",
			"outputs": [
				{
					"internalType": "address",
					"name": "",
					"type": "address"
				}
			],
			"stateMutability": "view",
			"type": "function"
		},
		{
			"inputs": [
				{
					"internalType": "string",
					"name": "_name",
					"type": "string"
				}
			],
			"name": "getAddress",
			"outputs": [
				{
					"internalType": "address",
					"name": "",
					"type": "address"
				}
			],
			"stateMutability": "view",
			"type": "function"
		},
		{
			"inputs": [],
			"name": "getAllNames",
			"outputs": [
				{
					"internalType": "string[]",
					"name": "",
					"type": "string[]"
				}
			],
			"stateMutability": "view",
			"type": "function"
		},
		{
			"inputs": [
				{
					"internalType": "uint256",
					"name": "tokenId",
					"type": "uint256"
				}
			],
			"name": "getApproved",
			"outputs": [
				{
					"internalType": "address",
					"name": "",
					"type": "address"
				}
			],
			"stateMutability": "view",
			"type": "function"
		},
		{
			"inputs": [
				{
					"internalType": "address",
					"name": "owner",
					"type": "address"
				},
				{
					"internalType": "address",
					"name": "operator",
					"type": "address"
				}
			],
			"name": "isApprovedForAll",
			"outputs": [
				{
					"internalType": "bool",
					"name": "",
					"type": "bool"
				}
			],
			"stateMutability": "view",
			"type": "function"
		},
		{
			"inputs": [],
			"name": "isOwner",
			"outputs": [
				{
					"internalType": "bool",
					"name": "",
					"type": "bool"
				}
			],
			"stateMutability": "view",
			"type": "function"
		},
		{
			"inputs": [],
			"name": "name",
			"outputs": [
				{
					"internalType": "string",
					"name": "",
					"type": "string"
				}
			],
			"stateMutability": "view",
			"type": "function"
		},
		{
			"inputs": [
				{
					"internalType": "uint256",
					"name": "",
					"type": "uint256"
				}
			],
			"name": "names",
			"outputs": [
				{
					"internalType": "string",
					"name": "",
					"type": "string"
				}
			],
			"stateMutability": "view",
			"type": "function"
		},
		{
			"inputs": [],
			"name": "owner",
			"outputs": [
				{
					"internalType": "address payable",
					"name": "",
					"type": "address"
				}
			],
			"stateMutability": "view",
			"type": "function"
		},
		{
			"inputs": [
				{
					"internalType": "uint256",
					"name": "tokenId",
					"type": "uint256"
				}
			],
			"name": "ownerOf",
			"outputs": [
				{
					"internalType": "address",
					"name": "",
					"type": "address"
				}
			],
			"stateMutability": "view",
			"type": "function"
		},
		{
			"inputs": [
				{
					"internalType": "string",
					"name": "name",
					"type": "string"
				}
			],
			"name": "price",
			"outputs": [
				{
					"internalType": "uint256",
					"name": "",
					"type": "uint256"
				}
			],
			"stateMutability": "pure",
			"type": "function"
		},
		{
			"inputs": [
				{
					"internalType": "string",
					"name": "",
					"type": "string"
				}
			],
			"name": "records",
			"outputs": [
				{
					"internalType": "string",
					"name": "",
					"type": "string"
				}
			],
			"stateMutability": "view",
			"type": "function"
		},
		{
			"inputs": [
				{
					"internalType": "string",
					"name": "_name",
					"type": "string"
				}
			],
			"name": "register",
			"outputs": [],
			"stateMutability": "payable",
			"type": "function"
		},
		{
			"inputs": [
				{
					"internalType": "address",
					"name": "from",
					"type": "address"
				},
				{
					"internalType": "address",
					"name": "to",
					"type": "address"
				},
				{
					"internalType": "uint256",
					"name": "tokenId",
					"type": "uint256"
				}
			],
			"name": "safeTransferFrom",
			"outputs": [],
			"stateMutability": "nonpayable",
			"type": "function"
		},
		{
			"inputs": [
				{
					"internalType": "address",
					"name": "from",
					"type": "address"
				},
				{
					"internalType": "address",
					"name": "to",
					"type": "address"
				},
				{
					"internalType": "uint256",
					"name": "tokenId",
					"type": "uint256"
				},
				{
					"internalType": "bytes",
					"name": "_data",
					"type": "bytes"
				}
			],
			"name": "safeTransferFrom",
			"outputs": [],
			"stateMutability": "nonpayable",
			"type": "function"
		},
		{
			"inputs": [
				{
					"internalType": "address",
					"name": "operator",
					"type": "address"
				},
				{
					"internalType": "bool",
					"name": "approved",
					"type": "bool"
				}
			],
			"name": "setApprovalForAll",
			"outputs": [],
			"stateMutability": "nonpayable",
			"type": "function"
		},
		{
			"inputs": [
				{
					"internalType": "string",
					"name": "_name",
					"type": "string"
				},
				{
					"internalType": "string",
					"name": "_record",
					"type": "string"
				}
			],
			"name": "setRecord",
			"outputs": [],
			"stateMutability": "nonpayable",
			"type": "function"
		},
		{
			"inputs": [
				{
					"internalType": "bytes4",
					"name": "interfaceId",
					"type": "bytes4"
				}
			],
			"name": "supportsInterface",
			"outputs": [
				{
					"internalType": "bool",
					"name": "",
					"type": "bool"
				}
			],
			"stateMutability": "view",
			"type": "function"
		},
		{
			"inputs": [],
			"name": "symbol",
			"outputs": [
				{
					"internalType": "string",
					"name": "",
					"type": "string"
				}
			],
			"stateMutability": "view",
			"type": "function"
		},
		{
			"inputs": [],
			"name": "tld",
			"outputs": [
				{
					"internalType": "string",
					"name": "",
					"type": "string"
				}
			],
			"stateMutability": "view",
			"type": "function"
		},
		{
			"inputs": [
				{
					"internalType": "uint256",
					"name": "tokenId",
					"type": "uint256"
				}
			],
			"name": "tokenURI",
			"outputs": [
				{
					"internalType": "string",
					"name": "",
					"type": "string"
				}
			],
			"stateMutability": "view",
			"type": "function"
		},
		{
			"inputs": [
				{
					"internalType": "address",
					"name": "from",
					"type": "address"
				},
				{
					"internalType": "address",
					"name": "to",
					"type": "address"
				},
				{
					"internalType": "uint256",
					"name": "tokenId",
					"type": "uint256"
				}
			],
			"name": "transferFrom",
			"outputs": [],
			"stateMutability": "nonpayable",
			"type": "function"
		},
		{
			"inputs": [
				{
					"internalType": "string",
					"name": "name",
					"type": "string"
				}
			],
			"name": "valid",
			"outputs": [
				{
					"internalType": "bool",
					"name": "",
					"type": "bool"
				}
			],
			"stateMutability": "pure",
			"type": "function"
		},
		{
			"inputs": [],
			"name": "withdraw",
			"outputs": [],
			"stateMutability": "nonpayable",
			"type": "function"
		}
	],
	"bytecode": "0x608060405260405180610780016040528061074d81526020016200536d61074d9139600c90805190602001906200003892919062000393565b506040518060400160405280600d81526020017f3c2f746578743e3c2f7376673e00000000000000000000000000000000000000815250600d90805190602001906200008692919062000393565b5060405162005aba38038062005aba8339818101604052810190620000ac9190620005e0565b6040518060400160405280601081526020017f474d49204e616d652053657276696365000000000000000000000000000000008152506040518060400160405280600581526020017f474d494e5300000000000000000000000000000000000000000000000000000081525081600090805190602001906200013092919062000393565b5080600190805190602001906200014992919062000393565b50505033600e60006101000a81548173ffffffffffffffffffffffffffffffffffffffff021916908373ffffffffffffffffffffffffffffffffffffffff1602179055508060089080519060200190620001a592919062000393565b50620002ba6040518060400160405280601c81526020017f2573206e616d652073657276696365206465706c6f796564212025730000000081525060088054620001ef9062000660565b80601f01602080910402602001604051908101604052809291908181526020018280546200021d9062000660565b80156200026e5780601f1062000242576101008083540402835291602001916200026e565b820191906000526020600020905b8154815290600101906020018083116200025057829003601f168201915b50505050506040518060400160405280600481526020017ff09f9a8000000000000000000000000000000000000000000000000000000000815250620002c160201b62001a341760201c565b5062000745565b62000365838383604051602401620002dc93929190620006f3565b6040516020818303038152906040527f2ced7cef000000000000000000000000000000000000000000000000000000007bffffffffffffffffffffffffffffffffffffffffffffffffffffffff19166020820180517bffffffffffffffffffffffffffffffffffffffffffffffffffffffff83818316178352505050506200036a60201b60201c565b505050565b60008151905060006a636f6e736f6c652e6c6f679050602083016000808483855afa5050505050565b828054620003a19062000660565b90600052602060002090601f016020900481019282620003c5576000855562000411565b82601f10620003e057805160ff191683800117855562000411565b8280016001018555821562000411579182015b8281111562000410578251825591602001919060010190620003f3565b5b50905062000420919062000424565b5090565b5b808211156200043f57600081600090555060010162000425565b5090565b6000604051905090565b600080fd5b600080fd5b600080fd5b600080fd5b6000601f19601f8301169050919050565b7f4e487b7100000000000000000000000000000000000000000000000000000000600052604160045260246000fd5b620004ac8262000461565b810181811067ffffffffffffffff82111715620004ce57620004cd62000472565b5b80604052505050565b6000620004e362000443565b9050620004f18282620004a1565b919050565b600067ffffffffffffffff82111562000514576200051362000472565b5b6200051f8262000461565b9050602081019050919050565b60005b838110156200054c5780820151818401526020810190506200052f565b838111156200055c576000848401525b50505050565b6000620005796200057384620004f6565b620004d7565b9050828152602081018484840111156200059857620005976200045c565b5b620005a58482856200052c565b509392505050565b600082601f830112620005c557620005c462000457565b5b8151620005d784826020860162000562565b91505092915050565b600060208284031215620005f957620005f86200044d565b5b600082015167ffffffffffffffff8111156200061a576200061962000452565b5b6200062884828501620005ad565b91505092915050565b7f4e487b7100000000000000000000000000000000000000000000000000000000600052602260045260246000fd5b600060028204905060018216806200067957607f821691505b6020821081141562000690576200068f62000631565b5b50919050565b600081519050919050565b600082825260208201905092915050565b6000620006bf8262000696565b620006cb8185620006a1565b9350620006dd8185602086016200052c565b620006e88162000461565b840191505092915050565b600060608201905081810360008301526200070f8186620006b2565b90508181036020830152620007258185620006b2565b905081810360408301526200073b8184620006b2565b9050949350505050565b614c1880620007556000396000f3fe6080604052600436106101815760003560e01c80638da5cb5b116100d1578063bf40fac11161008a578063e985e9c511610064578063e985e9c5146105cc578063f2c298be14610609578063fb825e5f14610625578063fe2c61981461065057610181565b8063bf40fac114610529578063c1880a9814610566578063c87b56dd1461058f57610181565b80638da5cb5b146104195780638f32d59b1461044457806395d89b411461046f5780639791c0971461049a578063a22cb465146104d7578063b88d4fde1461050057610181565b80632d5514321161013e5780634622ab03116101185780634622ab0314610325578063541e771d146103625780636352211e1461039f57806370a08231146103dc57610181565b80632d551432146102ba5780633ccfd60b146102e557806342842e0e146102fc57610181565b806301ffc9a71461018657806306fdde03146101c3578063081812fc146101ee578063095ea7b31461022b57806323b872dd14610254578063264492351461027d575b600080fd5b34801561019257600080fd5b506101ad60048036038101906101a89190612f19565b61068d565b6040516101ba9190612f61565b60405180910390f35b3480156101cf57600080fd5b506101d861076f565b6040516101e59190613015565b60405180910390f35b3480156101fa57600080fd5b506102156004803603810190610210919061306d565b610801565b60405161022291906130db565b60405180910390f35b34801561023757600080fd5b50610252600480360381019061024d9190613122565b610886565b005b34801561026057600080fd5b5061027b60048036038101906102769190613162565b61099e565b005b34801561028957600080fd5b506102a4600480360381019061029f91906132ea565b6109fe565b6040516102b191906130db565b60405180910390f35b3480156102c657600080fd5b506102cf610a47565b6040516102dc9190613015565b60405180910390f35b3480156102f157600080fd5b506102fa610ad5565b005b34801561030857600080fd5b50610323600480360381019061031e9190613162565b610b9b565b005b34801561033157600080fd5b5061034c6004803603810190610347919061306d565b610bbb565b6040516103599190613015565b60405180910390f35b34801561036e57600080fd5b50610389600480360381019061038491906132ea565b610c5b565b6040516103969190613015565b60405180910390f35b3480156103ab57600080fd5b506103c660048036038101906103c1919061306d565b610d11565b6040516103d391906130db565b60405180910390f35b3480156103e857600080fd5b5061040360048036038101906103fe9190613333565b610dc3565b604051610410919061336f565b60405180910390f35b34801561042557600080fd5b5061042e610e7b565b60405161043b91906133ab565b60405180910390f35b34801561045057600080fd5b50610459610ea1565b6040516104669190612f61565b60405180910390f35b34801561047b57600080fd5b50610484610ef9565b6040516104919190613015565b60405180910390f35b3480156104a657600080fd5b506104c160048036038101906104bc9190613426565b610f8b565b6040516104ce9190612f61565b60405180910390f35b3480156104e357600080fd5b506104fe60048036038101906104f9919061349f565b61103f565b005b34801561050c57600080fd5b5061052760048036038101906105229190613580565b611055565b005b34801561053557600080fd5b50610550600480360381019061054b9190613426565b6110b7565b60405161055d91906130db565b60405180910390f35b34801561057257600080fd5b5061058d60048036038101906105889190613603565b611102565b005b34801561059b57600080fd5b506105b660048036038101906105b1919061306d565b6111dd565b6040516105c39190613015565b60405180910390f35b3480156105d857600080fd5b506105f360048036038101906105ee9190613684565b61132f565b6040516106009190612f61565b60405180910390f35b610623600480360381019061061e9190613426565b6113c3565b005b34801561063157600080fd5b5061063a61184b565b60405161064791906137d0565b60405180910390f35b34801561065c57600080fd5b5061067760048036038101906106729190613426565b611991565b604051610684919061336f565b60405180910390f35b60007f80ac58cd000000000000000000000000000000000000000000000000000000007bffffffffffffffffffffffffffffffffffffffffffffffffffffffff1916827bffffffffffffffffffffffffffffffffffffffffffffffffffffffff1916148061075857507f5b5e139f000000000000000000000000000000000000000000000000000000007bffffffffffffffffffffffffffffffffffffffffffffffffffffffff1916827bffffffffffffffffffffffffffffffffffffffffffffffffffffffff1916145b80610768575061076782611ad3565b5b9050919050565b60606000805461077e90613821565b80601f01602080910402602001604051908101604052809291908181526020018280546107aa90613821565b80156107f75780601f106107cc576101008083540402835291602001916107f7565b820191906000526020600020905b8154815290600101906020018083116107da57829003601f168201915b5050505050905090565b600061080c82611b3d565b61084b576040517f08c379a0000000000000000000000000000000000000000000000000000000008152600401610842906138c5565b60405180910390fd5b6004600083815260200190815260200160002060009054906101000a900473ffffffffffffffffffffffffffffffffffffffff169050919050565b600061089182610d11565b90508073ffffffffffffffffffffffffffffffffffffffff168373ffffffffffffffffffffffffffffffffffffffff161415610902576040517f08c379a00000000000000000000000000000000000000000000000000000000081526004016108f990613957565b60405180910390fd5b8073ffffffffffffffffffffffffffffffffffffffff16610921611ba9565b73ffffffffffffffffffffffffffffffffffffffff161480610950575061094f8161094a611ba9565b61132f565b5b61098f576040517f08c379a0000000000000000000000000000000000000000000000000000000008152600401610986906139e9565b60405180910390fd5b6109998383611bb1565b505050565b6109af6109a9611ba9565b82611c6a565b6109ee576040517f08c379a00000000000000000000000000000000000000000000000000000000081526004016109e590613a7b565b60405180910390fd5b6109f9838383611d48565b505050565b6009818051602081018201805184825260208301602085012081835280955050505050506000915054906101000a900473ffffffffffffffffffffffffffffffffffffffff1681565b60088054610a5490613821565b80601f0160208091040260200160405190810160405280929190818152602001828054610a8090613821565b8015610acd5780601f10610aa257610100808354040283529160200191610acd565b820191906000526020600020905b815481529060010190602001808311610ab057829003601f168201915b505050505081565b610add610ea1565b610ae657600080fd5b600047905060003373ffffffffffffffffffffffffffffffffffffffff1682604051610b1190613acc565b60006040518083038185875af1925050503d8060008114610b4e576040519150601f19603f3d011682016040523d82523d6000602084013e610b53565b606091505b5050905080610b97576040517f08c379a0000000000000000000000000000000000000000000000000000000008152600401610b8e90613b2d565b60405180910390fd5b5050565b610bb683838360405180602001604052806000815250611055565b505050565b600b6020528060005260406000206000915090508054610bda90613821565b80601f0160208091040260200160405190810160405280929190818152602001828054610c0690613821565b8015610c535780601f10610c2857610100808354040283529160200191610c53565b820191906000526020600020905b815481529060010190602001808311610c3657829003601f168201915b505050505081565b600a818051602081018201805184825260208301602085012081835280955050505050506000915090508054610c9090613821565b80601f0160208091040260200160405190810160405280929190818152602001828054610cbc90613821565b8015610d095780601f10610cde57610100808354040283529160200191610d09565b820191906000526020600020905b815481529060010190602001808311610cec57829003601f168201915b505050505081565b6000806002600084815260200190815260200160002060009054906101000a900473ffffffffffffffffffffffffffffffffffffffff169050600073ffffffffffffffffffffffffffffffffffffffff168173ffffffffffffffffffffffffffffffffffffffff161415610dba576040517f08c379a0000000000000000000000000000000000000000000000000000000008152600401610db190613bbf565b60405180910390fd5b80915050919050565b60008073ffffffffffffffffffffffffffffffffffffffff168273ffffffffffffffffffffffffffffffffffffffff161415610e34576040517f08c379a0000000000000000000000000000000000000000000000000000000008152600401610e2b90613c51565b60405180910390fd5b600360008373ffffffffffffffffffffffffffffffffffffffff1673ffffffffffffffffffffffffffffffffffffffff168152602001908152602001600020549050919050565b600e60009054906101000a900473ffffffffffffffffffffffffffffffffffffffff1681565b6000600e60009054906101000a900473ffffffffffffffffffffffffffffffffffffffff1673ffffffffffffffffffffffffffffffffffffffff163373ffffffffffffffffffffffffffffffffffffffff1614905090565b606060018054610f0890613821565b80601f0160208091040260200160405190810160405280929190818152602001828054610f3490613821565b8015610f815780601f10610f5657610100808354040283529160200191610f81565b820191906000526020600020905b815481529060010190602001808311610f6457829003601f168201915b5050505050905090565b60006003610fdc84848080601f016020809104026020016040519081016040528093929190818152602001838380828437600081840152601f19601f82011690508083019250505050505050611faf565b101580156110375750600a61103484848080601f016020809104026020016040519081016040528093929190818152602001838380828437600081840152601f19601f82011690508083019250505050505050611faf565b11155b905092915050565b61105161104a611ba9565b8383612164565b5050565b611066611060611ba9565b83611c6a565b6110a5576040517f08c379a000000000000000000000000000000000000000000000000000000000815260040161109c90613a7b565b60405180910390fd5b6110b1848484846122d1565b50505050565b6000600983836040516110cb929190613ca1565b908152602001604051809103902060009054906101000a900473ffffffffffffffffffffffffffffffffffffffff16905092915050565b60098484604051611114929190613ca1565b908152602001604051809103902060009054906101000a900473ffffffffffffffffffffffffffffffffffffffff1673ffffffffffffffffffffffffffffffffffffffff163373ffffffffffffffffffffffffffffffffffffffff16146111a7576040517f82b4290000000000000000000000000000000000000000000000000000000000815260040160405180910390fd5b8181600a86866040516111bb929190613ca1565b908152602001604051809103902091906111d6929190612d84565b5050505050565b60606111e882611b3d565b611227576040517f08c379a000000000000000000000000000000000000000000000000000000000815260040161121e90613d2c565b60405180910390fd5b600060066000848152602001908152602001600020805461124790613821565b80601f016020809104026020016040519081016040528092919081815260200182805461127390613821565b80156112c05780601f10611295576101008083540402835291602001916112c0565b820191906000526020600020905b8154815290600101906020018083116112a357829003601f168201915b5050505050905060006112d161232d565b90506000815114156112e757819250505061132a565b60008251111561131c578082604051602001611304929190613d7d565b6040516020818303038152906040529250505061132a565b61132584612344565b925050505b919050565b6000600560008473ffffffffffffffffffffffffffffffffffffffff1673ffffffffffffffffffffffffffffffffffffffff16815260200190815260200160002060008373ffffffffffffffffffffffffffffffffffffffff1673ffffffffffffffffffffffffffffffffffffffff16815260200190815260200160002060009054906101000a900460ff16905092915050565b600073ffffffffffffffffffffffffffffffffffffffff16600983836040516113ed929190613ca1565b908152602001604051809103902060009054906101000a900473ffffffffffffffffffffffffffffffffffffffff1673ffffffffffffffffffffffffffffffffffffffff1614611469576040517f3a81d6fc00000000000000000000000000000000000000000000000000000000815260040160405180910390fd5b6114738282610f8b565b6114b65781816040517f7f19f48d0000000000000000000000000000000000000000000000000000000081526004016114ad929190613dce565b60405180910390fd5b60006114c28383611991565b905080341015611507576040517f08c379a00000000000000000000000000000000000000000000000000000000081526004016114fe90613e64565b60405180910390fd5b60008383600860405160200161151f93929190613f64565b60405160208183030381529060405290506000600c82600d60405160200161154993929190613f95565b6040516020818303038152906040529050600061156660076123eb565b905060006115b787878080601f016020809104026020016040519081016040528093929190818152602001838380828437600081840152601f19601f82011690508083019250505050505050611faf565b905060006115c4826123f9565b90506116b8604051806060016040528060318152602001614b396031913989898080601f016020809104026020016040519081016040528093929190818152602001838380828437600081840152601f19601f820116905080830192505050505050506008805461163490613821565b80601f016020809104026020016040519081016040528092919081815260200182805461166090613821565b80156116ad5780601f10611682576101008083540402835291602001916116ad565b820191906000526020600020905b81548152906001019060200180831161169057829003601f168201915b50505050508661255a565b60006116f3898960086116ca896125fc565b866040516020016116df95949392919061418e565b6040516020818303038152906040526125fc565b90506000816040516020016117089190614251565b604051602081830303815290604052905061173a604051806060016040528060398152602001614b0060399139612794565b6117796040518060400160405280600e81526020017f46696e616c20746f6b656e5552490000000000000000000000000000000000008152508261282d565b61179a604051806060016040528060398152602001614b6a60399139612794565b6117a433866128c9565b6117ae85826128e7565b3360098b8b6040516117c1929190613ca1565b908152602001604051809103902060006101000a81548173ffffffffffffffffffffffffffffffffffffffff021916908373ffffffffffffffffffffffffffffffffffffffff16021790555086600b60008781526020019081526020016000209080519060200190611834929190612e0a565b5061183f600761295b565b50505050505050505050565b6060600061185960076123eb565b67ffffffffffffffff811115611872576118716131bf565b5b6040519080825280602002602001820160405280156118a557816020015b60608152602001906001900390816118905790505b50905060005b6118b560076123eb565b81101561198957600b600082815260200190815260200160002080546118da90613821565b80601f016020809104026020016040519081016040528092919081815260200182805461190690613821565b80156119535780601f1061192857610100808354040283529160200191611953565b820191906000526020600020905b81548152906001019060200180831161193657829003601f168201915b505050505082828151811061196b5761196a614273565b5b60200260200101819052508080611981906142d1565b9150506118ab565b508091505090565b6000806119e184848080601f016020809104026020016040519081016040528093929190818152602001838380828437600081840152601f19601f82011690508083019250505050505050611faf565b9050600081116119f057600080fd5b6003811415611a095766b1a2bc2ec50000915050611a2e565b6004811415611a2257666a94d74f430000915050611a2e565b662386f26fc100009150505b92915050565b611ace838383604051602401611a4c9392919061431a565b6040516020818303038152906040527f2ced7cef000000000000000000000000000000000000000000000000000000007bffffffffffffffffffffffffffffffffffffffffffffffffffffffff19166020820180517bffffffffffffffffffffffffffffffffffffffffffffffffffffffff8381831617835250505050612971565b505050565b60007f01ffc9a7000000000000000000000000000000000000000000000000000000007bffffffffffffffffffffffffffffffffffffffffffffffffffffffff1916827bffffffffffffffffffffffffffffffffffffffffffffffffffffffff1916149050919050565b60008073ffffffffffffffffffffffffffffffffffffffff166002600084815260200190815260200160002060009054906101000a900473ffffffffffffffffffffffffffffffffffffffff1673ffffffffffffffffffffffffffffffffffffffff1614159050919050565b600033905090565b816004600083815260200190815260200160002060006101000a81548173ffffffffffffffffffffffffffffffffffffffff021916908373ffffffffffffffffffffffffffffffffffffffff160217905550808273ffffffffffffffffffffffffffffffffffffffff16611c2483610d11565b73ffffffffffffffffffffffffffffffffffffffff167f8c5be1e5ebec7d5bd14f71427d1e84f3dd0314c0f7b2291e5b200ac8c7c3b92560405160405180910390a45050565b6000611c7582611b3d565b611cb4576040517f08c379a0000000000000000000000000000000000000000000000000000000008152600401611cab906143d8565b60405180910390fd5b6000611cbf83610d11565b90508073ffffffffffffffffffffffffffffffffffffffff168473ffffffffffffffffffffffffffffffffffffffff161480611d015750611d00818561132f565b5b80611d3f57508373ffffffffffffffffffffffffffffffffffffffff16611d2784610801565b73ffffffffffffffffffffffffffffffffffffffff16145b91505092915050565b8273ffffffffffffffffffffffffffffffffffffffff16611d6882610d11565b73ffffffffffffffffffffffffffffffffffffffff1614611dbe576040517f08c379a0000000000000000000000000000000000000000000000000000000008152600401611db59061446a565b60405180910390fd5b600073ffffffffffffffffffffffffffffffffffffffff168273ffffffffffffffffffffffffffffffffffffffff161415611e2e576040517f08c379a0000000000000000000000000000000000000000000000000000000008152600401611e25906144fc565b60405180910390fd5b611e3983838361299a565b611e44600082611bb1565b6001600360008573ffffffffffffffffffffffffffffffffffffffff1673ffffffffffffffffffffffffffffffffffffffff1681526020019081526020016000206000828254611e94919061451c565b925050819055506001600360008473ffffffffffffffffffffffffffffffffffffffff1673ffffffffffffffffffffffffffffffffffffffff1681526020019081526020016000206000828254611eeb9190614550565b92505081905550816002600083815260200190815260200160002060006101000a81548173ffffffffffffffffffffffffffffffffffffffff021916908373ffffffffffffffffffffffffffffffffffffffff160217905550808273ffffffffffffffffffffffffffffffffffffffff168473ffffffffffffffffffffffffffffffffffffffff167fddf252ad1be2c89b69c2b068fc378daa952ba7f163c4a11628f55a4df523b3ef60405160405180910390a4611faa83838361299f565b505050565b60008060008084519050600092505b80821015612159576000858381518110611fdb57611fda614273565b5b602001015160f81c60f81b9050608060f81b817effffffffffffffffffffffffffffffffffffffffffffffffffffffffffffff1916101561202a576001836120239190614550565b9250612145565b60e060f81b817effffffffffffffffffffffffffffffffffffffffffffffffffffffffffffff1916101561206c576002836120659190614550565b9250612144565b60f060f81b817effffffffffffffffffffffffffffffffffffffffffffffffffffffffffffff191610156120ae576003836120a79190614550565b9250612143565b60f8801b817effffffffffffffffffffffffffffffffffffffffffffffffffffffffffffff191610156120ef576004836120e89190614550565b9250612142565b60fc60f81b817effffffffffffffffffffffffffffffffffffffffffffffffffffffffffffff191610156121315760058361212a9190614550565b9250612141565b60068361213e9190614550565b92505b5b5b5b5b508280612151906142d1565b935050611fbe565b829350505050919050565b8173ffffffffffffffffffffffffffffffffffffffff168373ffffffffffffffffffffffffffffffffffffffff1614156121d3576040517f08c379a00000000000000000000000000000000000000000000000000000000081526004016121ca906145f2565b60405180910390fd5b80600560008573ffffffffffffffffffffffffffffffffffffffff1673ffffffffffffffffffffffffffffffffffffffff16815260200190815260200160002060008473ffffffffffffffffffffffffffffffffffffffff1673ffffffffffffffffffffffffffffffffffffffff16815260200190815260200160002060006101000a81548160ff0219169083151502179055508173ffffffffffffffffffffffffffffffffffffffff168373ffffffffffffffffffffffffffffffffffffffff167f17307eab39ab6107e8899845ad3d59bd9653f200f220920489ca2b5937696c31836040516122c49190612f61565b60405180910390a3505050565b6122dc848484611d48565b6122e8848484846129a4565b612327576040517f08c379a000000000000000000000000000000000000000000000000000000000815260040161231e90614684565b60405180910390fd5b50505050565b606060405180602001604052806000815250905090565b606061234f82611b3d565b61238e576040517f08c379a000000000000000000000000000000000000000000000000000000000815260040161238590614716565b60405180910390fd5b600061239861232d565b905060008151116123b857604051806020016040528060008152506123e3565b806123c2846123f9565b6040516020016123d3929190613d7d565b6040516020818303038152906040525b915050919050565b600081600001549050919050565b60606000821415612441576040518060400160405280600181526020017f30000000000000000000000000000000000000000000000000000000000000008152509050612555565b600082905060005b6000821461247357808061245c906142d1565b915050600a8261246c9190614765565b9150612449565b60008167ffffffffffffffff81111561248f5761248e6131bf565b5b6040519080825280601f01601f1916602001820160405280156124c15781602001600182028036833780820191505090505b5090505b6000851461254e576001826124da919061451c565b9150600a856124e99190614796565b60306124f59190614550565b60f81b81838151811061250b5761250a614273565b5b60200101907effffffffffffffffffffffffffffffffffffffffffffffffffffffffffffff1916908160001a905350600a856125479190614765565b94506124c5565b8093505050505b919050565b6125f68484848460405160240161257494939291906147c7565b6040516020818303038152906040527f9fd009f5000000000000000000000000000000000000000000000000000000007bffffffffffffffffffffffffffffffffffffffffffffffffffffffff19166020820180517bffffffffffffffffffffffffffffffffffffffffffffffffffffffff8381831617835250505050612971565b50505050565b60606000825190506000811415612625576040518060200160405280600081525091505061278f565b600060036002836126369190614550565b6126409190614765565b600461264c9190614821565b9050600060208261265d9190614550565b67ffffffffffffffff811115612676576126756131bf565b5b6040519080825280601f01601f1916602001820160405280156126a85781602001600182028036833780820191505090505b5090506000604051806060016040528060408152602001614ba3604091399050600181016020830160005b8681101561274c5760038101905062ffffff818a015116603f8160121c168401518060081b905060ff603f83600c1c1686015116810190508060081b905060ff603f8360061c1686015116810190508060081b905060ff603f831686015116810190508060e01b905080845260048401935050506126d3565b506003860660018114612766576002811461277657612781565b613d3d60f01b6002830352612781565b603d60f81b60018303525b508484525050819450505050505b919050565b61282a816040516024016127a89190613015565b6040516020818303038152906040527f41304fac000000000000000000000000000000000000000000000000000000007bffffffffffffffffffffffffffffffffffffffffffffffffffffffff19166020820180517bffffffffffffffffffffffffffffffffffffffffffffffffffffffff8381831617835250505050612971565b50565b6128c5828260405160240161284392919061487b565b6040516020818303038152906040527f4b5c4277000000000000000000000000000000000000000000000000000000007bffffffffffffffffffffffffffffffffffffffffffffffffffffffff19166020820180517bffffffffffffffffffffffffffffffffffffffffffffffffffffffff8381831617835250505050612971565b5050565b6128e3828260405180602001604052806000815250612b2c565b5050565b6128f082611b3d565b61292f576040517f08c379a000000000000000000000000000000000000000000000000000000000815260040161292690614924565b60405180910390fd5b80600660008481526020019081526020016000209080519060200190612956929190612e0a565b505050565b6001816000016000828254019250508190555050565b60008151905060006a636f6e736f6c652e6c6f679050602083016000808483855afa5050505050565b505050565b505050565b60006129c58473ffffffffffffffffffffffffffffffffffffffff16612b87565b15612b1f578373ffffffffffffffffffffffffffffffffffffffff1663150b7a026129ee611ba9565b8786866040518563ffffffff1660e01b8152600401612a109493929190614999565b6020604051808303816000875af1925050508015612a4c57506040513d601f19601f82011682018060405250810190612a4991906149fa565b60015b612acf573d8060008114612a7c576040519150601f19603f3d011682016040523d82523d6000602084013e612a81565b606091505b50600081511415612ac7576040517f08c379a0000000000000000000000000000000000000000000000000000000008152600401612abe90614684565b60405180910390fd5b805181602001fd5b63150b7a0260e01b7bffffffffffffffffffffffffffffffffffffffffffffffffffffffff1916817bffffffffffffffffffffffffffffffffffffffffffffffffffffffff191614915050612b24565b600190505b949350505050565b612b368383612baa565b612b4360008484846129a4565b612b82576040517f08c379a0000000000000000000000000000000000000000000000000000000008152600401612b7990614684565b60405180910390fd5b505050565b6000808273ffffffffffffffffffffffffffffffffffffffff163b119050919050565b600073ffffffffffffffffffffffffffffffffffffffff168273ffffffffffffffffffffffffffffffffffffffff161415612c1a576040517f08c379a0000000000000000000000000000000000000000000000000000000008152600401612c1190614a73565b60405180910390fd5b612c2381611b3d565b15612c63576040517f08c379a0000000000000000000000000000000000000000000000000000000008152600401612c5a90614adf565b60405180910390fd5b612c6f6000838361299a565b6001600360008473ffffffffffffffffffffffffffffffffffffffff1673ffffffffffffffffffffffffffffffffffffffff1681526020019081526020016000206000828254612cbf9190614550565b92505081905550816002600083815260200190815260200160002060006101000a81548173ffffffffffffffffffffffffffffffffffffffff021916908373ffffffffffffffffffffffffffffffffffffffff160217905550808273ffffffffffffffffffffffffffffffffffffffff16600073ffffffffffffffffffffffffffffffffffffffff167fddf252ad1be2c89b69c2b068fc378daa952ba7f163c4a11628f55a4df523b3ef60405160405180910390a4612d806000838361299f565b5050565b828054612d9090613821565b90600052602060002090601f016020900481019282612db25760008555612df9565b82601f10612dcb57803560ff1916838001178555612df9565b82800160010185558215612df9579182015b82811115612df8578235825591602001919060010190612ddd565b5b509050612e069190612e90565b5090565b828054612e1690613821565b90600052602060002090601f016020900481019282612e385760008555612e7f565b82601f10612e5157805160ff1916838001178555612e7f565b82800160010185558215612e7f579182015b82811115612e7e578251825591602001919060010190612e63565b5b509050612e8c9190612e90565b5090565b5b80821115612ea9576000816000905550600101612e91565b5090565b6000604051905090565b600080fd5b600080fd5b60007fffffffff0000000000000000000000000000000000000000000000000000000082169050919050565b612ef681612ec1565b8114612f0157600080fd5b50565b600081359050612f1381612eed565b92915050565b600060208284031215612f2f57612f2e612eb7565b5b6000612f3d84828501612f04565b91505092915050565b60008115159050919050565b612f5b81612f46565b82525050565b6000602082019050612f766000830184612f52565b92915050565b600081519050919050565b600082825260208201905092915050565b60005b83811015612fb6578082015181840152602081019050612f9b565b83811115612fc5576000848401525b50505050565b6000601f19601f8301169050919050565b6000612fe782612f7c565b612ff18185612f87565b9350613001818560208601612f98565b61300a81612fcb565b840191505092915050565b6000602082019050818103600083015261302f8184612fdc565b905092915050565b6000819050919050565b61304a81613037565b811461305557600080fd5b50565b60008135905061306781613041565b92915050565b60006020828403121561308357613082612eb7565b5b600061309184828501613058565b91505092915050565b600073ffffffffffffffffffffffffffffffffffffffff82169050919050565b60006130c58261309a565b9050919050565b6130d5816130ba565b82525050565b60006020820190506130f060008301846130cc565b92915050565b6130ff816130ba565b811461310a57600080fd5b50565b60008135905061311c816130f6565b92915050565b6000806040838503121561313957613138612eb7565b5b60006131478582860161310d565b925050602061315885828601613058565b9150509250929050565b60008060006060848603121561317b5761317a612eb7565b5b60006131898682870161310d565b935050602061319a8682870161310d565b92505060406131ab86828701613058565b9150509250925092565b600080fd5b600080fd5b7f4e487b7100000000000000000000000000000000000000000000000000000000600052604160045260246000fd5b6131f782612fcb565b810181811067ffffffffffffffff82111715613216576132156131bf565b5b80604052505050565b6000613229612ead565b905061323582826131ee565b919050565b600067ffffffffffffffff821115613255576132546131bf565b5b61325e82612fcb565b9050602081019050919050565b82818337600083830152505050565b600061328d6132888461323a565b61321f565b9050828152602081018484840111156132a9576132a86131ba565b5b6132b484828561326b565b509392505050565b600082601f8301126132d1576132d06131b5565b5b81356132e184826020860161327a565b91505092915050565b600060208284031215613300576132ff612eb7565b5b600082013567ffffffffffffffff81111561331e5761331d612ebc565b5b61332a848285016132bc565b91505092915050565b60006020828403121561334957613348612eb7565b5b60006133578482850161310d565b91505092915050565b61336981613037565b82525050565b60006020820190506133846000830184613360565b92915050565b60006133958261309a565b9050919050565b6133a58161338a565b82525050565b60006020820190506133c0600083018461339c565b92915050565b600080fd5b600080fd5b60008083601f8401126133e6576133e56131b5565b5b8235905067ffffffffffffffff811115613403576134026133c6565b5b60208301915083600182028301111561341f5761341e6133cb565b5b9250929050565b6000806020838503121561343d5761343c612eb7565b5b600083013567ffffffffffffffff81111561345b5761345a612ebc565b5b613467858286016133d0565b92509250509250929050565b61347c81612f46565b811461348757600080fd5b50565b60008135905061349981613473565b92915050565b600080604083850312156134b6576134b5612eb7565b5b60006134c48582860161310d565b92505060206134d58582860161348a565b9150509250929050565b600067ffffffffffffffff8211156134fa576134f96131bf565b5b61350382612fcb565b9050602081019050919050565b600061352361351e846134df565b61321f565b90508281526020810184848401111561353f5761353e6131ba565b5b61354a84828561326b565b509392505050565b600082601f830112613567576135666131b5565b5b8135613577848260208601613510565b91505092915050565b6000806000806080858703121561359a57613599612eb7565b5b60006135a88782880161310d565b94505060206135b98782880161310d565b93505060406135ca87828801613058565b925050606085013567ffffffffffffffff8111156135eb576135ea612ebc565b5b6135f787828801613552565b91505092959194509250565b6000806000806040858703121561361d5761361c612eb7565b5b600085013567ffffffffffffffff81111561363b5761363a612ebc565b5b613647878288016133d0565b9450945050602085013567ffffffffffffffff81111561366a57613669612ebc565b5b613676878288016133d0565b925092505092959194509250565b6000806040838503121561369b5761369a612eb7565b5b60006136a98582860161310d565b92505060206136ba8582860161310d565b9150509250929050565b600081519050919050565b600082825260208201905092915050565b6000819050602082019050919050565b600082825260208201905092915050565b600061370c82612f7c565b61371681856136f0565b9350613726818560208601612f98565b61372f81612fcb565b840191505092915050565b60006137468383613701565b905092915050565b6000602082019050919050565b6000613766826136c4565b61377081856136cf565b935083602082028501613782856136e0565b8060005b858110156137be578484038952815161379f858261373a565b94506137aa8361374e565b925060208a01995050600181019050613786565b50829750879550505050505092915050565b600060208201905081810360008301526137ea818461375b565b905092915050565b7f4e487b7100000000000000000000000000000000000000000000000000000000600052602260045260246000fd5b6000600282049050600182168061383957607f821691505b6020821081141561384d5761384c6137f2565b5b50919050565b7f4552433732313a20617070726f76656420717565727920666f72206e6f6e657860008201527f697374656e7420746f6b656e0000000000000000000000000000000000000000602082015250565b60006138af602c83612f87565b91506138ba82613853565b604082019050919050565b600060208201905081810360008301526138de816138a2565b9050919050565b7f4552433732313a20617070726f76616c20746f2063757272656e74206f776e6560008201527f7200000000000000000000000000000000000000000000000000000000000000602082015250565b6000613941602183612f87565b915061394c826138e5565b604082019050919050565b6000602082019050818103600083015261397081613934565b9050919050565b7f4552433732313a20617070726f76652063616c6c6572206973206e6f74206f7760008201527f6e6572206e6f7220617070726f76656420666f7220616c6c0000000000000000602082015250565b60006139d3603883612f87565b91506139de82613977565b604082019050919050565b60006020820190508181036000830152613a02816139c6565b9050919050565b7f4552433732313a207472616e736665722063616c6c6572206973206e6f74206f60008201527f776e6572206e6f7220617070726f766564000000000000000000000000000000602082015250565b6000613a65603183612f87565b9150613a7082613a09565b604082019050919050565b60006020820190508181036000830152613a9481613a58565b9050919050565b600081905092915050565b50565b6000613ab6600083613a9b565b9150613ac182613aa6565b600082019050919050565b6000613ad782613aa9565b9150819050919050565b7f4661696c656420746f20776974686472617720244d4154494300000000000000600082015250565b6000613b17601983612f87565b9150613b2282613ae1565b602082019050919050565b60006020820190508181036000830152613b4681613b0a565b9050919050565b7f4552433732313a206f776e657220717565727920666f72206e6f6e657869737460008201527f656e7420746f6b656e0000000000000000000000000000000000000000000000602082015250565b6000613ba9602983612f87565b9150613bb482613b4d565b604082019050919050565b60006020820190508181036000830152613bd881613b9c565b9050919050565b7f4552433732313a2062616c616e636520717565727920666f7220746865207a6560008201527f726f206164647265737300000000000000000000000000000000000000000000602082015250565b6000613c3b602a83612f87565b9150613c4682613bdf565b604082019050919050565b60006020820190508181036000830152613c6a81613c2e565b9050919050565b600081905092915050565b6000613c888385613c71565b9350613c9583858461326b565b82840190509392505050565b6000613cae828486613c7c565b91508190509392505050565b7f45524337323155524953746f726167653a2055524920717565727920666f722060008201527f6e6f6e6578697374656e7420746f6b656e000000000000000000000000000000602082015250565b6000613d16603183612f87565b9150613d2182613cba565b604082019050919050565b60006020820190508181036000830152613d4581613d09565b9050919050565b6000613d5782612f7c565b613d618185613c71565b9350613d71818560208601612f98565b80840191505092915050565b6000613d898285613d4c565b9150613d958284613d4c565b91508190509392505050565b6000613dad8385612f87565b9350613dba83858461326b565b613dc383612fcb565b840190509392505050565b60006020820190508181036000830152613de9818486613da1565b90509392505050565b7f596f7520686176656e2774207061696420656e6f756768204d4154494320746f60008201527f20627579207468697320646f6d61696e203a2800000000000000000000000000602082015250565b6000613e4e603383612f87565b9150613e5982613df2565b604082019050919050565b60006020820190508181036000830152613e7d81613e41565b9050919050565b7f2e00000000000000000000000000000000000000000000000000000000000000600082015250565b6000613eba600183613c71565b9150613ec582613e84565b600182019050919050565b60008190508160005260206000209050919050565b60008154613ef281613821565b613efc8186613c71565b94506001821660008114613f175760018114613f2857613f5b565b60ff19831686528186019350613f5b565b613f3185613ed0565b60005b83811015613f5357815481890152600182019150602081019050613f34565b838801955050505b50505092915050565b6000613f71828587613c7c565b9150613f7c82613ead565b9150613f888284613ee5565b9150819050949350505050565b6000613fa18286613ee5565b9150613fad8285613d4c565b9150613fb98284613ee5565b9150819050949350505050565b7f7b226e616d65223a202200000000000000000000000000000000000000000000600082015250565b6000613ffc600a83613c71565b915061400782613fc6565b600a82019050919050565b7f222c20226465736372697074696f6e223a20224120646f6d61696e206f6e207460008201527f6865200000000000000000000000000000000000000000000000000000000000602082015250565b600061406e602383613c71565b915061407982614012565b602382019050919050565b7f206e616d652073657276696365222c2022696d616765223a2022646174613a6960008201527f6d6167652f7376672b786d6c3b6261736536342c000000000000000000000000602082015250565b60006140e0603483613c71565b91506140eb82614084565b603482019050919050565b7f222c226c656e677468223a220000000000000000000000000000000000000000600082015250565b600061412c600c83613c71565b9150614137826140f6565b600c82019050919050565b7f227d000000000000000000000000000000000000000000000000000000000000600082015250565b6000614178600283613c71565b915061418382614142565b600282019050919050565b600061419982613fef565b91506141a6828789613c7c565b91506141b182614061565b91506141bd8286613ee5565b91506141c8826140d3565b91506141d48285613d4c565b91506141df8261411f565b91506141eb8284613d4c565b91506141f68261416b565b91508190509695505050505050565b7f646174613a6170706c69636174696f6e2f6a736f6e3b6261736536342c000000600082015250565b600061423b601d83613c71565b915061424682614205565b601d82019050919050565b600061425c8261422e565b91506142688284613d4c565b915081905092915050565b7f4e487b7100000000000000000000000000000000000000000000000000000000600052603260045260246000fd5b7f4e487b7100000000000000000000000000000000000000000000000000000000600052601160045260246000fd5b60006142dc82613037565b91507fffffffffffffffffffffffffffffffffffffffffffffffffffffffffffffffff82141561430f5761430e6142a2565b5b600182019050919050565b600060608201905081810360008301526143348186612fdc565b905081810360208301526143488185612fdc565b9050818103604083015261435c8184612fdc565b9050949350505050565b7f4552433732313a206f70657261746f7220717565727920666f72206e6f6e657860008201527f697374656e7420746f6b656e0000000000000000000000000000000000000000602082015250565b60006143c2602c83612f87565b91506143cd82614366565b604082019050919050565b600060208201905081810360008301526143f1816143b5565b9050919050565b7f4552433732313a207472616e736665722066726f6d20696e636f72726563742060008201527f6f776e6572000000000000000000000000000000000000000000000000000000602082015250565b6000614454602583612f87565b915061445f826143f8565b604082019050919050565b6000602082019050818103600083015261448381614447565b9050919050565b7f4552433732313a207472616e7366657220746f20746865207a65726f2061646460008201527f7265737300000000000000000000000000000000000000000000000000000000602082015250565b60006144e6602483612f87565b91506144f18261448a565b604082019050919050565b60006020820190508181036000830152614515816144d9565b9050919050565b600061452782613037565b915061453283613037565b925082821015614545576145446142a2565b5b828203905092915050565b600061455b82613037565b915061456683613037565b9250827fffffffffffffffffffffffffffffffffffffffffffffffffffffffffffffffff0382111561459b5761459a6142a2565b5b828201905092915050565b7f4552433732313a20617070726f766520746f2063616c6c657200000000000000600082015250565b60006145dc601983612f87565b91506145e7826145a6565b602082019050919050565b6000602082019050818103600083015261460b816145cf565b9050919050565b7f4552433732313a207472616e7366657220746f206e6f6e20455243373231526560008201527f63656976657220696d706c656d656e7465720000000000000000000000000000602082015250565b600061466e603283612f87565b915061467982614612565b604082019050919050565b6000602082019050818103600083015261469d81614661565b9050919050565b7f4552433732314d657461646174613a2055524920717565727920666f72206e6f60008201527f6e6578697374656e7420746f6b656e0000000000000000000000000000000000602082015250565b6000614700602f83612f87565b915061470b826146a4565b604082019050919050565b6000602082019050818103600083015261472f816146f3565b9050919050565b7f4e487b7100000000000000000000000000000000000000000000000000000000600052601260045260246000fd5b600061477082613037565b915061477b83613037565b92508261478b5761478a614736565b5b828204905092915050565b60006147a182613037565b91506147ac83613037565b9250826147bc576147bb614736565b5b828206905092915050565b600060808201905081810360008301526147e18187612fdc565b905081810360208301526147f58186612fdc565b905081810360408301526148098185612fdc565b90506148186060830184613360565b95945050505050565b600061482c82613037565b915061483783613037565b9250817fffffffffffffffffffffffffffffffffffffffffffffffffffffffffffffffff04831182151516156148705761486f6142a2565b5b828202905092915050565b600060408201905081810360008301526148958185612fdc565b905081810360208301526148a98184612fdc565b90509392505050565b7f45524337323155524953746f726167653a2055524920736574206f66206e6f6e60008201527f6578697374656e7420746f6b656e000000000000000000000000000000000000602082015250565b600061490e602e83612f87565b9150614919826148b2565b604082019050919050565b6000602082019050818103600083015261493d81614901565b9050919050565b600081519050919050565b600082825260208201905092915050565b600061496b82614944565b614975818561494f565b9350614985818560208601612f98565b61498e81612fcb565b840191505092915050565b60006080820190506149ae60008301876130cc565b6149bb60208301866130cc565b6149c86040830185613360565b81810360608301526149da8184614960565b905095945050505050565b6000815190506149f481612eed565b92915050565b600060208284031215614a1057614a0f612eb7565b5b6000614a1e848285016149e5565b91505092915050565b7f4552433732313a206d696e7420746f20746865207a65726f2061646472657373600082015250565b6000614a5d602083612f87565b9150614a6882614a27565b602082019050919050565b60006020820190508181036000830152614a8c81614a50565b9050919050565b7f4552433732313a20746f6b656e20616c7265616479206d696e74656400000000600082015250565b6000614ac9601c83612f87565b9150614ad482614a93565b602082019050919050565b60006020820190508181036000830152614af881614abc565b905091905056fe0a2d2d2d2d2d2d2d2d2d2d2d2d2d2d2d2d2d2d2d2d2d2d2d2d2d2d2d2d2d2d2d2d2d2d2d2d2d2d2d2d2d2d2d2d2d2d2d2d2d2d2d2d2d2d2d2d5265676973746572696e672025732e2573206f6e2074686520636f6e7472616374207769746820746f6b656e49442025642d2d2d2d2d2d2d2d2d2d2d2d2d2d2d2d2d2d2d2d2d2d2d2d2d2d2d2d2d2d2d2d2d2d2d2d2d2d2d2d2d2d2d2d2d2d2d2d2d2d2d2d2d2d2d2d0a4142434445464748494a4b4c4d4e4f505152535455565758595a6162636465666768696a6b6c6d6e6f707172737475767778797a303132333435363738392b2fa2646970667358221220dd92fd347c5c6b6b1b0cabc8e93b93dd53bfc9adb7ed28b6bf2521b54f86497964736f6c634300080a00333c73766720786d6c6e733d22687474703a2f2f7777772e77332e6f72672f323030302f737667222077696474683d2232373022206865696768743d22323730222066696c6c3d226e6f6e65223e3c706174682066696c6c3d2275726c282361292220643d224d302030683237307632373048307a222f3e3c646566733e3c66696c7465722069643d22622220636f6c6f722d696e746572706f6c6174696f6e2d66696c746572733d2273524742222066696c746572556e6974733d227573657253706163654f6e55736522206865696768743d22323730222077696474683d22323730223e3c666544726f70536861646f772064783d2230222064793d22312220737464446576696174696f6e3d22322220666c6f6f642d6f7061636974793d222e323235222077696474683d223230302522206865696768743d2232303025222f3e3c2f66696c7465723e3c2f646566733e3c7061746820643d224d37322e3836332034322e39343961342e33383220342e3338322030203020302d342e33393420306c2d31302e30383120362e3033322d362e383520332e3933342d31302e30383120362e30333261342e33383220342e3338322030203020312d342e33393420306c2d382e3031332d342e37323161342e353220342e35322030203020312d312e3538392d312e36313620342e353420342e35342030203020312d2e3630382d322e313837762d392e333161342e323720342e3237203020302031202e3537322d322e32303820342e323520342e323520302030203120312e3632352d312e3539356c372e3838342d342e353961342e33383220342e33383220302030203120342e33393420306c372e38383420342e353961342e353220342e353220302030203120312e35383920312e36313620342e353420342e3534203020302031202e36303820322e31383776362e3033326c362e38352d342e303635762d362e30333261342e323720342e32372030203020302d2e3537322d322e32303820342e323520342e32352030203020302d312e3632352d312e3539354c34312e3435362032342e353961342e33383220342e3338322030203020302d342e33393420306c2d31342e38363420382e36353561342e323520342e32352030203020302d312e36323520312e35393520342e32373320342e3237332030203020302d2e35373220322e3230387631372e34343161342e323720342e3237203020302030202e35373220322e32303820342e323520342e323520302030203020312e36323520312e3539356c31342e38363420382e36353561342e33383220342e33383220302030203020342e33393420306c31302e3038312d352e39303120362e38352d342e3036352031302e3038312d352e39303161342e33383220342e33383220302030203120342e33393420306c372e38383420342e353961342e353220342e353220302030203120312e35383920312e36313620342e353420342e3534203020302031202e36303820322e31383776392e33313161342e323720342e32372030203020312d2e35373220322e32303820342e323520342e32352030203020312d312e36323520312e3539356c2d372e38383420342e37323161342e33383220342e3338322030203020312d342e33393420306c2d372e3838342d342e353961342e353220342e35322030203020312d312e3538392d312e36313620342e353320342e35332030203020312d2e3630382d322e313837762d362e3033326c2d362e383520342e30363576362e30333261342e323720342e3237203020302030202e35373220322e32303820342e323520342e323520302030203020312e36323520312e3539356c31342e38363420382e36353561342e33383220342e33383220302030203020342e33393420306c31342e3836342d382e36353561342e35343520342e35343520302030203020322e3139382d332e3830335635352e35333861342e323720342e32372030203020302d2e3537322d322e32303820342e323520342e32352030203020302d312e3632352d312e3539356c2d31342e3939332d382e3738367a222066696c6c3d2223666666222f3e3c646566733e3c6c696e6561724772616469656e742069643d2261222078313d2230222079313d2230222078323d22323730222079323d2232373022206772616469656e74556e6974733d227573657253706163654f6e557365223e3c73746f702073746f702d636f6c6f723d2223636235656565222f3e3c73746f70206f66667365743d2231222073746f702d636f6c6f723d2223306364376534222073746f702d6f7061636974793d222e3939222f3e3c2f6c696e6561724772616469656e743e3c2f646566733e3c7465787420783d2233322e352220793d223233312220666f6e742d73697a653d223237222066696c6c3d2223666666222066696c7465723d2275726c282362292220666f6e742d66616d696c793d224d6f6e61636f2c204c756369646120436f6e736f6c652c20436f75726965722c206d6f6e6f73706163652220666f6e742d7765696768743d22626f6c64223e",
	"linkReferences": {},
	"deployedLinkReferences": {}
}