{
	"_format": "hh-sol-artifact-1",
	"contractName": "Domains",
	"sourceName": "contracts/Domains.sol",
	"abi": [
		{
			"inputs": [
				{
					"internalType": "string",
					"name": "_tld",
					"type": "string"
				}
			],
			"stateMutability": "payable",
			"type": "constructor"
		},
		{
			"anonymous": false,
			"inputs": [
				{
					"indexed": true,
					"internalType": "address",
					"name": "owner",
					"type": "address"
				},
				{
					"indexed": true,
					"internalType": "address",
					"name": "approved",
					"type": "address"
				},
				{
					"indexed": true,
					"internalType": "uint256",
					"name": "tokenId",
					"type": "uint256"
				}
			],
			"name": "Approval",
			"type": "event"
		},
		{
			"anonymous": false,
			"inputs": [
				{
					"indexed": true,
					"internalType": "address",
					"name": "owner",
					"type": "address"
				},
				{
					"indexed": true,
					"internalType": "address",
					"name": "operator",
					"type": "address"
				},
				{
					"indexed": false,
					"internalType": "bool",
					"name": "approved",
					"type": "bool"
				}
			],
			"name": "ApprovalForAll",
			"type": "event"
		},
		{
			"anonymous": false,
			"inputs": [
				{
					"indexed": true,
					"internalType": "address",
					"name": "from",
					"type": "address"
				},
				{
					"indexed": true,
					"internalType": "address",
					"name": "to",
					"type": "address"
				},
				{
					"indexed": true,
					"internalType": "uint256",
					"name": "tokenId",
					"type": "uint256"
				}
			],
			"name": "Transfer",
			"type": "event"
		},
		{
			"inputs": [
				{
					"internalType": "address",
					"name": "to",
					"type": "address"
				},
				{
					"internalType": "uint256",
					"name": "tokenId",
					"type": "uint256"
				}
			],
			"name": "approve",
			"outputs": [],
			"stateMutability": "nonpayable",
			"type": "function"
		},
		{
			"inputs": [
				{
					"internalType": "address",
					"name": "owner",
					"type": "address"
				}
			],
			"name": "balanceOf",
			"outputs": [
				{
					"internalType": "uint256",
					"name": "",
					"type": "uint256"
				}
			],
			"stateMutability": "view",
			"type": "function"
		},
		{
			"inputs": [
				{
					"internalType": "string",
					"name": "",
					"type": "string"
				}
			],
			"name": "domains",
			"outputs": [
				{
					"internalType": "address",
					"name": "",
					"type": "address"
				}
			],
			"stateMutability": "view",
			"type": "function"
		},
		{
			"inputs": [
				{
					"internalType": "string",
					"name": "_name",
					"type": "string"
				}
			],
			"name": "getAddress",
			"outputs": [
				{
					"internalType": "address",
					"name": "",
					"type": "address"
				}
			],
			"stateMutability": "view",
			"type": "function"
		},
		{
			"inputs": [
				{
					"internalType": "uint256",
					"name": "tokenId",
					"type": "uint256"
				}
			],
			"name": "getApproved",
			"outputs": [
				{
					"internalType": "address",
					"name": "",
					"type": "address"
				}
			],
			"stateMutability": "view",
			"type": "function"
		},
		{
			"inputs": [
				{
					"internalType": "address",
					"name": "owner",
					"type": "address"
				},
				{
					"internalType": "address",
					"name": "operator",
					"type": "address"
				}
			],
			"name": "isApprovedForAll",
			"outputs": [
				{
					"internalType": "bool",
					"name": "",
					"type": "bool"
				}
			],
			"stateMutability": "view",
			"type": "function"
		},
		{
			"inputs": [],
			"name": "name",
			"outputs": [
				{
					"internalType": "string",
					"name": "",
					"type": "string"
				}
			],
			"stateMutability": "view",
			"type": "function"
		},
		{
			"inputs": [
				{
					"internalType": "uint256",
					"name": "tokenId",
					"type": "uint256"
				}
			],
			"name": "ownerOf",
			"outputs": [
				{
					"internalType": "address",
					"name": "",
					"type": "address"
				}
			],
			"stateMutability": "view",
			"type": "function"
		},
		{
			"inputs": [
				{
					"internalType": "string",
					"name": "name",
					"type": "string"
				}
			],
			"name": "price",
			"outputs": [
				{
					"internalType": "uint256",
					"name": "",
					"type": "uint256"
				}
			],
			"stateMutability": "pure",
			"type": "function"
		},
		{
			"inputs": [
				{
					"internalType": "string",
					"name": "",
					"type": "string"
				}
			],
			"name": "records",
			"outputs": [
				{
					"internalType": "string",
					"name": "",
					"type": "string"
				}
			],
			"stateMutability": "view",
			"type": "function"
		},
		{
			"inputs": [
				{
					"internalType": "string",
					"name": "_name",
					"type": "string"
				}
			],
			"name": "register",
			"outputs": [],
			"stateMutability": "payable",
			"type": "function"
		},
		{
			"inputs": [
				{
					"internalType": "address",
					"name": "from",
					"type": "address"
				},
				{
					"internalType": "address",
					"name": "to",
					"type": "address"
				},
				{
					"internalType": "uint256",
					"name": "tokenId",
					"type": "uint256"
				}
			],
			"name": "safeTransferFrom",
			"outputs": [],
			"stateMutability": "nonpayable",
			"type": "function"
		},
		{
			"inputs": [
				{
					"internalType": "address",
					"name": "from",
					"type": "address"
				},
				{
					"internalType": "address",
					"name": "to",
					"type": "address"
				},
				{
					"internalType": "uint256",
					"name": "tokenId",
					"type": "uint256"
				},
				{
					"internalType": "bytes",
					"name": "_data",
					"type": "bytes"
				}
			],
			"name": "safeTransferFrom",
			"outputs": [],
			"stateMutability": "nonpayable",
			"type": "function"
		},
		{
			"inputs": [
				{
					"internalType": "address",
					"name": "operator",
					"type": "address"
				},
				{
					"internalType": "bool",
					"name": "approved",
					"type": "bool"
				}
			],
			"name": "setApprovalForAll",
			"outputs": [],
			"stateMutability": "nonpayable",
			"type": "function"
		},
		{
			"inputs": [
				{
					"internalType": "string",
					"name": "_name",
					"type": "string"
				},
				{
					"internalType": "string",
					"name": "_record",
					"type": "string"
				}
			],
			"name": "setRecord",
			"outputs": [],
			"stateMutability": "nonpayable",
			"type": "function"
		},
		{
			"inputs": [
				{
					"internalType": "bytes4",
					"name": "interfaceId",
					"type": "bytes4"
				}
			],
			"name": "supportsInterface",
			"outputs": [
				{
					"internalType": "bool",
					"name": "",
					"type": "bool"
				}
			],
			"stateMutability": "view",
			"type": "function"
		},
		{
			"inputs": [],
			"name": "symbol",
			"outputs": [
				{
					"internalType": "string",
					"name": "",
					"type": "string"
				}
			],
			"stateMutability": "view",
			"type": "function"
		},
		{
			"inputs": [],
			"name": "tld",
			"outputs": [
				{
					"internalType": "string",
					"name": "",
					"type": "string"
				}
			],
			"stateMutability": "view",
			"type": "function"
		},
		{
			"inputs": [
				{
					"internalType": "uint256",
					"name": "tokenId",
					"type": "uint256"
				}
			],
			"name": "tokenURI",
			"outputs": [
				{
					"internalType": "string",
					"name": "",
					"type": "string"
				}
			],
			"stateMutability": "view",
			"type": "function"
		},
		{
			"inputs": [
				{
					"internalType": "address",
					"name": "from",
					"type": "address"
				},
				{
					"internalType": "address",
					"name": "to",
					"type": "address"
				},
				{
					"internalType": "uint256",
					"name": "tokenId",
					"type": "uint256"
				}
			],
			"name": "transferFrom",
			"outputs": [],
			"stateMutability": "nonpayable",
			"type": "function"
		}
	],
	"bytecode": "0x608060405260405180610780016040528061074d815260200162004a9e61074d9139600b90805190602001906200003892919062000352565b506040518060400160405280600d81526020017f3c2f746578743e3c2f7376673e00000000000000000000000000000000000000815250600c90805190602001906200008692919062000352565b50604051620051eb380380620051eb8339818101604052810190620000ac91906200059f565b6040518060400160405280601081526020017f474d49204e616d652053657276696365000000000000000000000000000000008152506040518060400160405280600581526020017f474d494e5300000000000000000000000000000000000000000000000000000081525081600090805190602001906200013092919062000352565b5080600190805190602001906200014992919062000352565b50505080600890805190602001906200016492919062000352565b50620002796040518060400160405280601c81526020017f2573206e616d652073657276696365206465706c6f796564212025730000000081525060088054620001ae906200061f565b80601f0160208091040260200160405190810160405280929190818152602001828054620001dc906200061f565b80156200022d5780601f1062000201576101008083540402835291602001916200022d565b820191906000526020600020905b8154815290600101906020018083116200020f57829003601f168201915b50505050506040518060400160405280600481526020017ff09f9a80000000000000000000000000000000000000000000000000000000008152506200028060201b620014131760201c565b5062000704565b620003248383836040516024016200029b93929190620006b2565b6040516020818303038152906040527f2ced7cef000000000000000000000000000000000000000000000000000000007bffffffffffffffffffffffffffffffffffffffffffffffffffffffff19166020820180517bffffffffffffffffffffffffffffffffffffffffffffffffffffffff83818316178352505050506200032960201b60201c565b505050565b60008151905060006a636f6e736f6c652e6c6f679050602083016000808483855afa5050505050565b82805462000360906200061f565b90600052602060002090601f016020900481019282620003845760008555620003d0565b82601f106200039f57805160ff1916838001178555620003d0565b82800160010185558215620003d0579182015b82811115620003cf578251825591602001919060010190620003b2565b5b509050620003df9190620003e3565b5090565b5b80821115620003fe576000816000905550600101620003e4565b5090565b6000604051905090565b600080fd5b600080fd5b600080fd5b600080fd5b6000601f19601f8301169050919050565b7f4e487b7100000000000000000000000000000000000000000000000000000000600052604160045260246000fd5b6200046b8262000420565b810181811067ffffffffffffffff821117156200048d576200048c62000431565b5b80604052505050565b6000620004a262000402565b9050620004b0828262000460565b919050565b600067ffffffffffffffff821115620004d357620004d262000431565b5b620004de8262000420565b9050602081019050919050565b60005b838110156200050b578082015181840152602081019050620004ee565b838111156200051b576000848401525b50505050565b6000620005386200053284620004b5565b62000496565b9050828152602081018484840111156200055757620005566200041b565b5b62000564848285620004eb565b509392505050565b600082601f83011262000584576200058362000416565b5b81516200059684826020860162000521565b91505092915050565b600060208284031215620005b857620005b76200040c565b5b600082015167ffffffffffffffff811115620005d957620005d862000411565b5b620005e7848285016200056c565b91505092915050565b7f4e487b7100000000000000000000000000000000000000000000000000000000600052602260045260246000fd5b600060028204905060018216806200063857607f821691505b602082108114156200064f576200064e620005f0565b5b50919050565b600081519050919050565b600082825260208201905092915050565b60006200067e8262000655565b6200068a818562000660565b93506200069c818560208601620004eb565b620006a78162000420565b840191505092915050565b60006060820190508181036000830152620006ce818662000671565b90508181036020830152620006e4818562000671565b90508181036040830152620006fa818462000671565b9050949350505050565b61438a80620007146000396000f3fe60806040526004361061011f5760003560e01c806370a08231116100a0578063c1880a9811610064578063c1880a981461041d578063c87b56dd14610446578063e985e9c514610483578063f2c298be146104c0578063fe2c6198146104dc5761011f565b806370a082311461032657806395d89b4114610363578063a22cb4651461038e578063b88d4fde146103b7578063bf40fac1146103e05761011f565b806326449235116100e7578063264492351461021b5780632d5514321461025857806342842e0e14610283578063541e771d146102ac5780636352211e146102e95761011f565b806301ffc9a71461012457806306fdde0314610161578063081812fc1461018c578063095ea7b3146101c957806323b872dd146101f2575b600080fd5b34801561013057600080fd5b5061014b600480360381019061014691906128f8565b610519565b6040516101589190612940565b60405180910390f35b34801561016d57600080fd5b506101766105fb565b60405161018391906129f4565b60405180910390f35b34801561019857600080fd5b506101b360048036038101906101ae9190612a4c565b61068d565b6040516101c09190612aba565b60405180910390f35b3480156101d557600080fd5b506101f060048036038101906101eb9190612b01565b610712565b005b3480156101fe57600080fd5b5061021960048036038101906102149190612b41565b61082a565b005b34801561022757600080fd5b50610242600480360381019061023d9190612cc9565b61088a565b60405161024f9190612aba565b60405180910390f35b34801561026457600080fd5b5061026d6108d3565b60405161027a91906129f4565b60405180910390f35b34801561028f57600080fd5b506102aa60048036038101906102a59190612b41565b610961565b005b3480156102b857600080fd5b506102d360048036038101906102ce9190612cc9565b610981565b6040516102e091906129f4565b60405180910390f35b3480156102f557600080fd5b50610310600480360381019061030b9190612a4c565b610a37565b60405161031d9190612aba565b60405180910390f35b34801561033257600080fd5b5061034d60048036038101906103489190612d12565b610ae9565b60405161035a9190612d4e565b60405180910390f35b34801561036f57600080fd5b50610378610ba1565b60405161038591906129f4565b60405180910390f35b34801561039a57600080fd5b506103b560048036038101906103b09190612d95565b610c33565b005b3480156103c357600080fd5b506103de60048036038101906103d99190612e76565b610c49565b005b3480156103ec57600080fd5b5061040760048036038101906104029190612f59565b610cab565b6040516104149190612aba565b60405180910390f35b34801561042957600080fd5b50610444600480360381019061043f9190612fa6565b610cf6565b005b34801561045257600080fd5b5061046d60048036038101906104689190612a4c565b610da4565b60405161047a91906129f4565b60405180910390f35b34801561048f57600080fd5b506104aa60048036038101906104a59190613027565b610ef6565b6040516104b79190612940565b60405180910390f35b6104da60048036038101906104d59190612f59565b610f8a565b005b3480156104e857600080fd5b5061050360048036038101906104fe9190612f59565b611370565b6040516105109190612d4e565b60405180910390f35b60007f80ac58cd000000000000000000000000000000000000000000000000000000007bffffffffffffffffffffffffffffffffffffffffffffffffffffffff1916827bffffffffffffffffffffffffffffffffffffffffffffffffffffffff191614806105e457507f5b5e139f000000000000000000000000000000000000000000000000000000007bffffffffffffffffffffffffffffffffffffffffffffffffffffffff1916827bffffffffffffffffffffffffffffffffffffffffffffffffffffffff1916145b806105f457506105f3826114b2565b5b9050919050565b60606000805461060a90613096565b80601f016020809104026020016040519081016040528092919081815260200182805461063690613096565b80156106835780601f1061065857610100808354040283529160200191610683565b820191906000526020600020905b81548152906001019060200180831161066657829003601f168201915b5050505050905090565b60006106988261151c565b6106d7576040517f08c379a00000000000000000000000000000000000000000000000000000000081526004016106ce9061313a565b60405180910390fd5b6004600083815260200190815260200160002060009054906101000a900473ffffffffffffffffffffffffffffffffffffffff169050919050565b600061071d82610a37565b90508073ffffffffffffffffffffffffffffffffffffffff168373ffffffffffffffffffffffffffffffffffffffff16141561078e576040517f08c379a0000000000000000000000000000000000000000000000000000000008152600401610785906131cc565b60405180910390fd5b8073ffffffffffffffffffffffffffffffffffffffff166107ad611588565b73ffffffffffffffffffffffffffffffffffffffff1614806107dc57506107db816107d6611588565b610ef6565b5b61081b576040517f08c379a00000000000000000000000000000000000000000000000000000000081526004016108129061325e565b60405180910390fd5b6108258383611590565b505050565b61083b610835611588565b82611649565b61087a576040517f08c379a0000000000000000000000000000000000000000000000000000000008152600401610871906132f0565b60405180910390fd5b610885838383611727565b505050565b6009818051602081018201805184825260208301602085012081835280955050505050506000915054906101000a900473ffffffffffffffffffffffffffffffffffffffff1681565b600880546108e090613096565b80601f016020809104026020016040519081016040528092919081815260200182805461090c90613096565b80156109595780601f1061092e57610100808354040283529160200191610959565b820191906000526020600020905b81548152906001019060200180831161093c57829003601f168201915b505050505081565b61097c83838360405180602001604052806000815250610c49565b505050565b600a8180516020810182018051848252602083016020850120818352809550505050505060009150905080546109b690613096565b80601f01602080910402602001604051908101604052809291908181526020018280546109e290613096565b8015610a2f5780601f10610a0457610100808354040283529160200191610a2f565b820191906000526020600020905b815481529060010190602001808311610a1257829003601f168201915b505050505081565b6000806002600084815260200190815260200160002060009054906101000a900473ffffffffffffffffffffffffffffffffffffffff169050600073ffffffffffffffffffffffffffffffffffffffff168173ffffffffffffffffffffffffffffffffffffffff161415610ae0576040517f08c379a0000000000000000000000000000000000000000000000000000000008152600401610ad790613382565b60405180910390fd5b80915050919050565b60008073ffffffffffffffffffffffffffffffffffffffff168273ffffffffffffffffffffffffffffffffffffffff161415610b5a576040517f08c379a0000000000000000000000000000000000000000000000000000000008152600401610b5190613414565b60405180910390fd5b600360008373ffffffffffffffffffffffffffffffffffffffff1673ffffffffffffffffffffffffffffffffffffffff168152602001908152602001600020549050919050565b606060018054610bb090613096565b80601f0160208091040260200160405190810160405280929190818152602001828054610bdc90613096565b8015610c295780601f10610bfe57610100808354040283529160200191610c29565b820191906000526020600020905b815481529060010190602001808311610c0c57829003601f168201915b5050505050905090565b610c45610c3e611588565b838361198e565b5050565b610c5a610c54611588565b83611649565b610c99576040517f08c379a0000000000000000000000000000000000000000000000000000000008152600401610c90906132f0565b60405180910390fd5b610ca584848484611afb565b50505050565b600060098383604051610cbf929190613464565b908152602001604051809103902060009054906101000a900473ffffffffffffffffffffffffffffffffffffffff16905092915050565b3373ffffffffffffffffffffffffffffffffffffffff1660098585604051610d1f929190613464565b908152602001604051809103902060009054906101000a900473ffffffffffffffffffffffffffffffffffffffff1673ffffffffffffffffffffffffffffffffffffffff1614610d6e57600080fd5b8181600a8686604051610d82929190613464565b90815260200160405180910390209190610d9d929190612763565b5050505050565b6060610daf8261151c565b610dee576040517f08c379a0000000000000000000000000000000000000000000000000000000008152600401610de5906134ef565b60405180910390fd5b6000600660008481526020019081526020016000208054610e0e90613096565b80601f0160208091040260200160405190810160405280929190818152602001828054610e3a90613096565b8015610e875780601f10610e5c57610100808354040283529160200191610e87565b820191906000526020600020905b815481529060010190602001808311610e6a57829003601f168201915b505050505090506000610e98611b57565b9050600081511415610eae578192505050610ef1565b600082511115610ee3578082604051602001610ecb929190613540565b60405160208183030381529060405292505050610ef1565b610eec84611b6e565b925050505b919050565b6000600560008473ffffffffffffffffffffffffffffffffffffffff1673ffffffffffffffffffffffffffffffffffffffff16815260200190815260200160002060008373ffffffffffffffffffffffffffffffffffffffff1673ffffffffffffffffffffffffffffffffffffffff16815260200190815260200160002060009054906101000a900460ff16905092915050565b600073ffffffffffffffffffffffffffffffffffffffff1660098383604051610fb4929190613464565b908152602001604051809103902060009054906101000a900473ffffffffffffffffffffffffffffffffffffffff1673ffffffffffffffffffffffffffffffffffffffff161461100357600080fd5b600061100f8383611370565b905080341015611054576040517f08c379a000000000000000000000000000000000000000000000000000000000815260040161104b906135d6565b60405180910390fd5b60008383600860405160200161106c939291906136d6565b60405160208183030381529060405290506000600b82600c60405160200161109693929190613707565b604051602081830303815290604052905060006110b36007611c15565b9050600061110487878080601f016020809104026020016040519081016040528093929190818152602001838380828437600081840152601f19601f82011690508083019250505050505050611c23565b9050600061111182611dd8565b90506112056040518060600160405280603181526020016142ab6031913989898080601f016020809104026020016040519081016040528093929190818152602001838380828437600081840152601f19601f820116905080830192505050505050506008805461118190613096565b80601f01602080910402602001604051908101604052809291908181526020018280546111ad90613096565b80156111fa5780601f106111cf576101008083540402835291602001916111fa565b820191906000526020600020905b8154815290600101906020018083116111dd57829003601f168201915b505050505086611f39565b60006112408989600861121789611fdb565b8660405160200161122c959493929190613900565b604051602081830303815290604052611fdb565b905060008160405160200161125591906139c3565b604051602081830303815290604052905061128760405180606001604052806039815260200161427260399139612173565b6112c66040518060400160405280600e81526020017f46696e616c20746f6b656e5552490000000000000000000000000000000000008152508261220c565b6112e76040518060600160405280603981526020016142dc60399139612173565b6112f133866122a8565b6112fb85826122c6565b3360098b8b60405161130e929190613464565b908152602001604051809103902060006101000a81548173ffffffffffffffffffffffffffffffffffffffff021916908373ffffffffffffffffffffffffffffffffffffffff160217905550611364600761233a565b50505050505050505050565b6000806113c084848080601f016020809104026020016040519081016040528093929190818152602001838380828437600081840152601f19601f82011690508083019250505050505050611c23565b9050600081116113cf57600080fd5b60038114156113e85766b1a2bc2ec5000091505061140d565b600481141561140157666a94d74f43000091505061140d565b662386f26fc100009150505b92915050565b6114ad83838360405160240161142b939291906139e5565b6040516020818303038152906040527f2ced7cef000000000000000000000000000000000000000000000000000000007bffffffffffffffffffffffffffffffffffffffffffffffffffffffff19166020820180517bffffffffffffffffffffffffffffffffffffffffffffffffffffffff8381831617835250505050612350565b505050565b60007f01ffc9a7000000000000000000000000000000000000000000000000000000007bffffffffffffffffffffffffffffffffffffffffffffffffffffffff1916827bffffffffffffffffffffffffffffffffffffffffffffffffffffffff1916149050919050565b60008073ffffffffffffffffffffffffffffffffffffffff166002600084815260200190815260200160002060009054906101000a900473ffffffffffffffffffffffffffffffffffffffff1673ffffffffffffffffffffffffffffffffffffffff1614159050919050565b600033905090565b816004600083815260200190815260200160002060006101000a81548173ffffffffffffffffffffffffffffffffffffffff021916908373ffffffffffffffffffffffffffffffffffffffff160217905550808273ffffffffffffffffffffffffffffffffffffffff1661160383610a37565b73ffffffffffffffffffffffffffffffffffffffff167f8c5be1e5ebec7d5bd14f71427d1e84f3dd0314c0f7b2291e5b200ac8c7c3b92560405160405180910390a45050565b60006116548261151c565b611693576040517f08c379a000000000000000000000000000000000000000000000000000000000815260040161168a90613aa3565b60405180910390fd5b600061169e83610a37565b90508073ffffffffffffffffffffffffffffffffffffffff168473ffffffffffffffffffffffffffffffffffffffff1614806116e057506116df8185610ef6565b5b8061171e57508373ffffffffffffffffffffffffffffffffffffffff166117068461068d565b73ffffffffffffffffffffffffffffffffffffffff16145b91505092915050565b8273ffffffffffffffffffffffffffffffffffffffff1661174782610a37565b73ffffffffffffffffffffffffffffffffffffffff161461179d576040517f08c379a000000000000000000000000000000000000000000000000000000000815260040161179490613b35565b60405180910390fd5b600073ffffffffffffffffffffffffffffffffffffffff168273ffffffffffffffffffffffffffffffffffffffff16141561180d576040517f08c379a000000000000000000000000000000000000000000000000000000000815260040161180490613bc7565b60405180910390fd5b611818838383612379565b611823600082611590565b6001600360008573ffffffffffffffffffffffffffffffffffffffff1673ffffffffffffffffffffffffffffffffffffffff16815260200190815260200160002060008282546118739190613c16565b925050819055506001600360008473ffffffffffffffffffffffffffffffffffffffff1673ffffffffffffffffffffffffffffffffffffffff16815260200190815260200160002060008282546118ca9190613c4a565b92505081905550816002600083815260200190815260200160002060006101000a81548173ffffffffffffffffffffffffffffffffffffffff021916908373ffffffffffffffffffffffffffffffffffffffff160217905550808273ffffffffffffffffffffffffffffffffffffffff168473ffffffffffffffffffffffffffffffffffffffff167fddf252ad1be2c89b69c2b068fc378daa952ba7f163c4a11628f55a4df523b3ef60405160405180910390a461198983838361237e565b505050565b8173ffffffffffffffffffffffffffffffffffffffff168373ffffffffffffffffffffffffffffffffffffffff1614156119fd576040517f08c379a00000000000000000000000000000000000000000000000000000000081526004016119f490613cec565b60405180910390fd5b80600560008573ffffffffffffffffffffffffffffffffffffffff1673ffffffffffffffffffffffffffffffffffffffff16815260200190815260200160002060008473ffffffffffffffffffffffffffffffffffffffff1673ffffffffffffffffffffffffffffffffffffffff16815260200190815260200160002060006101000a81548160ff0219169083151502179055508173ffffffffffffffffffffffffffffffffffffffff168373ffffffffffffffffffffffffffffffffffffffff167f17307eab39ab6107e8899845ad3d59bd9653f200f220920489ca2b5937696c3183604051611aee9190612940565b60405180910390a3505050565b611b06848484611727565b611b1284848484612383565b611b51576040517f08c379a0000000000000000000000000000000000000000000000000000000008152600401611b4890613d7e565b60405180910390fd5b50505050565b606060405180602001604052806000815250905090565b6060611b798261151c565b611bb8576040517f08c379a0000000000000000000000000000000000000000000000000000000008152600401611baf90613e10565b60405180910390fd5b6000611bc2611b57565b90506000815111611be25760405180602001604052806000815250611c0d565b80611bec84611dd8565b604051602001611bfd929190613540565b6040516020818303038152906040525b915050919050565b600081600001549050919050565b60008060008084519050600092505b80821015611dcd576000858381518110611c4f57611c4e613e30565b5b602001015160f81c60f81b9050608060f81b817effffffffffffffffffffffffffffffffffffffffffffffffffffffffffffff19161015611c9e57600183611c979190613c4a565b9250611db9565b60e060f81b817effffffffffffffffffffffffffffffffffffffffffffffffffffffffffffff19161015611ce057600283611cd99190613c4a565b9250611db8565b60f060f81b817effffffffffffffffffffffffffffffffffffffffffffffffffffffffffffff19161015611d2257600383611d1b9190613c4a565b9250611db7565b60f8801b817effffffffffffffffffffffffffffffffffffffffffffffffffffffffffffff19161015611d6357600483611d5c9190613c4a565b9250611db6565b60fc60f81b817effffffffffffffffffffffffffffffffffffffffffffffffffffffffffffff19161015611da557600583611d9e9190613c4a565b9250611db5565b600683611db29190613c4a565b92505b5b5b5b5b508280611dc590613e5f565b935050611c32565b829350505050919050565b60606000821415611e20576040518060400160405280600181526020017f30000000000000000000000000000000000000000000000000000000000000008152509050611f34565b600082905060005b60008214611e52578080611e3b90613e5f565b915050600a82611e4b9190613ed7565b9150611e28565b60008167ffffffffffffffff811115611e6e57611e6d612b9e565b5b6040519080825280601f01601f191660200182016040528015611ea05781602001600182028036833780820191505090505b5090505b60008514611f2d57600182611eb99190613c16565b9150600a85611ec89190613f08565b6030611ed49190613c4a565b60f81b818381518110611eea57611ee9613e30565b5b60200101907effffffffffffffffffffffffffffffffffffffffffffffffffffffffffffff1916908160001a905350600a85611f269190613ed7565b9450611ea4565b8093505050505b919050565b611fd584848484604051602401611f539493929190613f39565b6040516020818303038152906040527f9fd009f5000000000000000000000000000000000000000000000000000000007bffffffffffffffffffffffffffffffffffffffffffffffffffffffff19166020820180517bffffffffffffffffffffffffffffffffffffffffffffffffffffffff8381831617835250505050612350565b50505050565b60606000825190506000811415612004576040518060200160405280600081525091505061216e565b600060036002836120159190613c4a565b61201f9190613ed7565b600461202b9190613f93565b9050600060208261203c9190613c4a565b67ffffffffffffffff81111561205557612054612b9e565b5b6040519080825280601f01601f1916602001820160405280156120875781602001600182028036833780820191505090505b5090506000604051806060016040528060408152602001614315604091399050600181016020830160005b8681101561212b5760038101905062ffffff818a015116603f8160121c168401518060081b905060ff603f83600c1c1686015116810190508060081b905060ff603f8360061c1686015116810190508060081b905060ff603f831686015116810190508060e01b905080845260048401935050506120b2565b506003860660018114612145576002811461215557612160565b613d3d60f01b6002830352612160565b603d60f81b60018303525b508484525050819450505050505b919050565b6122098160405160240161218791906129f4565b6040516020818303038152906040527f41304fac000000000000000000000000000000000000000000000000000000007bffffffffffffffffffffffffffffffffffffffffffffffffffffffff19166020820180517bffffffffffffffffffffffffffffffffffffffffffffffffffffffff8381831617835250505050612350565b50565b6122a48282604051602401612222929190613fed565b6040516020818303038152906040527f4b5c4277000000000000000000000000000000000000000000000000000000007bffffffffffffffffffffffffffffffffffffffffffffffffffffffff19166020820180517bffffffffffffffffffffffffffffffffffffffffffffffffffffffff8381831617835250505050612350565b5050565b6122c282826040518060200160405280600081525061250b565b5050565b6122cf8261151c565b61230e576040517f08c379a000000000000000000000000000000000000000000000000000000000815260040161230590614096565b60405180910390fd5b806006600084815260200190815260200160002090805190602001906123359291906127e9565b505050565b6001816000016000828254019250508190555050565b60008151905060006a636f6e736f6c652e6c6f679050602083016000808483855afa5050505050565b505050565b505050565b60006123a48473ffffffffffffffffffffffffffffffffffffffff16612566565b156124fe578373ffffffffffffffffffffffffffffffffffffffff1663150b7a026123cd611588565b8786866040518563ffffffff1660e01b81526004016123ef949392919061410b565b6020604051808303816000875af192505050801561242b57506040513d601f19601f82011682018060405250810190612428919061416c565b60015b6124ae573d806000811461245b576040519150601f19603f3d011682016040523d82523d6000602084013e612460565b606091505b506000815114156124a6576040517f08c379a000000000000000000000000000000000000000000000000000000000815260040161249d90613d7e565b60405180910390fd5b805181602001fd5b63150b7a0260e01b7bffffffffffffffffffffffffffffffffffffffffffffffffffffffff1916817bffffffffffffffffffffffffffffffffffffffffffffffffffffffff191614915050612503565b600190505b949350505050565b6125158383612589565b6125226000848484612383565b612561576040517f08c379a000000000000000000000000000000000000000000000000000000000815260040161255890613d7e565b60405180910390fd5b505050565b6000808273ffffffffffffffffffffffffffffffffffffffff163b119050919050565b600073ffffffffffffffffffffffffffffffffffffffff168273ffffffffffffffffffffffffffffffffffffffff1614156125f9576040517f08c379a00000000000000000000000000000000000000000000000000000000081526004016125f0906141e5565b60405180910390fd5b6126028161151c565b15612642576040517f08c379a000000000000000000000000000000000000000000000000000000000815260040161263990614251565b60405180910390fd5b61264e60008383612379565b6001600360008473ffffffffffffffffffffffffffffffffffffffff1673ffffffffffffffffffffffffffffffffffffffff168152602001908152602001600020600082825461269e9190613c4a565b92505081905550816002600083815260200190815260200160002060006101000a81548173ffffffffffffffffffffffffffffffffffffffff021916908373ffffffffffffffffffffffffffffffffffffffff160217905550808273ffffffffffffffffffffffffffffffffffffffff16600073ffffffffffffffffffffffffffffffffffffffff167fddf252ad1be2c89b69c2b068fc378daa952ba7f163c4a11628f55a4df523b3ef60405160405180910390a461275f6000838361237e565b5050565b82805461276f90613096565b90600052602060002090601f01602090048101928261279157600085556127d8565b82601f106127aa57803560ff19168380011785556127d8565b828001600101855582156127d8579182015b828111156127d75782358255916020019190600101906127bc565b5b5090506127e5919061286f565b5090565b8280546127f590613096565b90600052602060002090601f016020900481019282612817576000855561285e565b82601f1061283057805160ff191683800117855561285e565b8280016001018555821561285e579182015b8281111561285d578251825591602001919060010190612842565b5b50905061286b919061286f565b5090565b5b80821115612888576000816000905550600101612870565b5090565b6000604051905090565b600080fd5b600080fd5b60007fffffffff0000000000000000000000000000000000000000000000000000000082169050919050565b6128d5816128a0565b81146128e057600080fd5b50565b6000813590506128f2816128cc565b92915050565b60006020828403121561290e5761290d612896565b5b600061291c848285016128e3565b91505092915050565b60008115159050919050565b61293a81612925565b82525050565b60006020820190506129556000830184612931565b92915050565b600081519050919050565b600082825260208201905092915050565b60005b8381101561299557808201518184015260208101905061297a565b838111156129a4576000848401525b50505050565b6000601f19601f8301169050919050565b60006129c68261295b565b6129d08185612966565b93506129e0818560208601612977565b6129e9816129aa565b840191505092915050565b60006020820190508181036000830152612a0e81846129bb565b905092915050565b6000819050919050565b612a2981612a16565b8114612a3457600080fd5b50565b600081359050612a4681612a20565b92915050565b600060208284031215612a6257612a61612896565b5b6000612a7084828501612a37565b91505092915050565b600073ffffffffffffffffffffffffffffffffffffffff82169050919050565b6000612aa482612a79565b9050919050565b612ab481612a99565b82525050565b6000602082019050612acf6000830184612aab565b92915050565b612ade81612a99565b8114612ae957600080fd5b50565b600081359050612afb81612ad5565b92915050565b60008060408385031215612b1857612b17612896565b5b6000612b2685828601612aec565b9250506020612b3785828601612a37565b9150509250929050565b600080600060608486031215612b5a57612b59612896565b5b6000612b6886828701612aec565b9350506020612b7986828701612aec565b9250506040612b8a86828701612a37565b9150509250925092565b600080fd5b600080fd5b7f4e487b7100000000000000000000000000000000000000000000000000000000600052604160045260246000fd5b612bd6826129aa565b810181811067ffffffffffffffff82111715612bf557612bf4612b9e565b5b80604052505050565b6000612c0861288c565b9050612c148282612bcd565b919050565b600067ffffffffffffffff821115612c3457612c33612b9e565b5b612c3d826129aa565b9050602081019050919050565b82818337600083830152505050565b6000612c6c612c6784612c19565b612bfe565b905082815260208101848484011115612c8857612c87612b99565b5b612c93848285612c4a565b509392505050565b600082601f830112612cb057612caf612b94565b5b8135612cc0848260208601612c59565b91505092915050565b600060208284031215612cdf57612cde612896565b5b600082013567ffffffffffffffff811115612cfd57612cfc61289b565b5b612d0984828501612c9b565b91505092915050565b600060208284031215612d2857612d27612896565b5b6000612d3684828501612aec565b91505092915050565b612d4881612a16565b82525050565b6000602082019050612d636000830184612d3f565b92915050565b612d7281612925565b8114612d7d57600080fd5b50565b600081359050612d8f81612d69565b92915050565b60008060408385031215612dac57612dab612896565b5b6000612dba85828601612aec565b9250506020612dcb85828601612d80565b9150509250929050565b600067ffffffffffffffff821115612df057612def612b9e565b5b612df9826129aa565b9050602081019050919050565b6000612e19612e1484612dd5565b612bfe565b905082815260208101848484011115612e3557612e34612b99565b5b612e40848285612c4a565b509392505050565b600082601f830112612e5d57612e5c612b94565b5b8135612e6d848260208601612e06565b91505092915050565b60008060008060808587031215612e9057612e8f612896565b5b6000612e9e87828801612aec565b9450506020612eaf87828801612aec565b9350506040612ec087828801612a37565b925050606085013567ffffffffffffffff811115612ee157612ee061289b565b5b612eed87828801612e48565b91505092959194509250565b600080fd5b600080fd5b60008083601f840112612f1957612f18612b94565b5b8235905067ffffffffffffffff811115612f3657612f35612ef9565b5b602083019150836001820283011115612f5257612f51612efe565b5b9250929050565b60008060208385031215612f7057612f6f612896565b5b600083013567ffffffffffffffff811115612f8e57612f8d61289b565b5b612f9a85828601612f03565b92509250509250929050565b60008060008060408587031215612fc057612fbf612896565b5b600085013567ffffffffffffffff811115612fde57612fdd61289b565b5b612fea87828801612f03565b9450945050602085013567ffffffffffffffff81111561300d5761300c61289b565b5b61301987828801612f03565b925092505092959194509250565b6000806040838503121561303e5761303d612896565b5b600061304c85828601612aec565b925050602061305d85828601612aec565b9150509250929050565b7f4e487b7100000000000000000000000000000000000000000000000000000000600052602260045260246000fd5b600060028204905060018216806130ae57607f821691505b602082108114156130c2576130c1613067565b5b50919050565b7f4552433732313a20617070726f76656420717565727920666f72206e6f6e657860008201527f697374656e7420746f6b656e0000000000000000000000000000000000000000602082015250565b6000613124602c83612966565b915061312f826130c8565b604082019050919050565b6000602082019050818103600083015261315381613117565b9050919050565b7f4552433732313a20617070726f76616c20746f2063757272656e74206f776e6560008201527f7200000000000000000000000000000000000000000000000000000000000000602082015250565b60006131b6602183612966565b91506131c18261315a565b604082019050919050565b600060208201905081810360008301526131e5816131a9565b9050919050565b7f4552433732313a20617070726f76652063616c6c6572206973206e6f74206f7760008201527f6e6572206e6f7220617070726f76656420666f7220616c6c0000000000000000602082015250565b6000613248603883612966565b9150613253826131ec565b604082019050919050565b600060208201905081810360008301526132778161323b565b9050919050565b7f4552433732313a207472616e736665722063616c6c6572206973206e6f74206f60008201527f776e6572206e6f7220617070726f766564000000000000000000000000000000602082015250565b60006132da603183612966565b91506132e58261327e565b604082019050919050565b60006020820190508181036000830152613309816132cd565b9050919050565b7f4552433732313a206f776e657220717565727920666f72206e6f6e657869737460008201527f656e7420746f6b656e0000000000000000000000000000000000000000000000602082015250565b600061336c602983612966565b915061337782613310565b604082019050919050565b6000602082019050818103600083015261339b8161335f565b9050919050565b7f4552433732313a2062616c616e636520717565727920666f7220746865207a6560008201527f726f206164647265737300000000000000000000000000000000000000000000602082015250565b60006133fe602a83612966565b9150613409826133a2565b604082019050919050565b6000602082019050818103600083015261342d816133f1565b9050919050565b600081905092915050565b600061344b8385613434565b9350613458838584612c4a565b82840190509392505050565b600061347182848661343f565b91508190509392505050565b7f45524337323155524953746f726167653a2055524920717565727920666f722060008201527f6e6f6e6578697374656e7420746f6b656e000000000000000000000000000000602082015250565b60006134d9603183612966565b91506134e48261347d565b604082019050919050565b60006020820190508181036000830152613508816134cc565b9050919050565b600061351a8261295b565b6135248185613434565b9350613534818560208601612977565b80840191505092915050565b600061354c828561350f565b9150613558828461350f565b91508190509392505050565b7f596f7520686176656e2774207061696420656e6f756768204d4154494320746f60008201527f20627579207468697320646f6d61696e203a2800000000000000000000000000602082015250565b60006135c0603383612966565b91506135cb82613564565b604082019050919050565b600060208201905081810360008301526135ef816135b3565b9050919050565b7f2e00000000000000000000000000000000000000000000000000000000000000600082015250565b600061362c600183613434565b9150613637826135f6565b600182019050919050565b60008190508160005260206000209050919050565b6000815461366481613096565b61366e8186613434565b94506001821660008114613689576001811461369a576136cd565b60ff198316865281860193506136cd565b6136a385613642565b60005b838110156136c5578154818901526001820191506020810190506136a6565b838801955050505b50505092915050565b60006136e382858761343f565b91506136ee8261361f565b91506136fa8284613657565b9150819050949350505050565b60006137138286613657565b915061371f828561350f565b915061372b8284613657565b9150819050949350505050565b7f7b226e616d65223a202200000000000000000000000000000000000000000000600082015250565b600061376e600a83613434565b915061377982613738565b600a82019050919050565b7f222c20226465736372697074696f6e223a20224120646f6d61696e206f6e207460008201527f6865200000000000000000000000000000000000000000000000000000000000602082015250565b60006137e0602383613434565b91506137eb82613784565b602382019050919050565b7f206e616d652073657276696365222c2022696d616765223a2022646174613a6960008201527f6d6167652f7376672b786d6c3b6261736536342c000000000000000000000000602082015250565b6000613852603483613434565b915061385d826137f6565b603482019050919050565b7f222c226c656e677468223a220000000000000000000000000000000000000000600082015250565b600061389e600c83613434565b91506138a982613868565b600c82019050919050565b7f227d000000000000000000000000000000000000000000000000000000000000600082015250565b60006138ea600283613434565b91506138f5826138b4565b600282019050919050565b600061390b82613761565b915061391882878961343f565b9150613923826137d3565b915061392f8286613657565b915061393a82613845565b9150613946828561350f565b915061395182613891565b915061395d828461350f565b9150613968826138dd565b91508190509695505050505050565b7f646174613a6170706c69636174696f6e2f6a736f6e3b6261736536342c000000600082015250565b60006139ad601d83613434565b91506139b882613977565b601d82019050919050565b60006139ce826139a0565b91506139da828461350f565b915081905092915050565b600060608201905081810360008301526139ff81866129bb565b90508181036020830152613a1381856129bb565b90508181036040830152613a2781846129bb565b9050949350505050565b7f4552433732313a206f70657261746f7220717565727920666f72206e6f6e657860008201527f697374656e7420746f6b656e0000000000000000000000000000000000000000602082015250565b6000613a8d602c83612966565b9150613a9882613a31565b604082019050919050565b60006020820190508181036000830152613abc81613a80565b9050919050565b7f4552433732313a207472616e736665722066726f6d20696e636f72726563742060008201527f6f776e6572000000000000000000000000000000000000000000000000000000602082015250565b6000613b1f602583612966565b9150613b2a82613ac3565b604082019050919050565b60006020820190508181036000830152613b4e81613b12565b9050919050565b7f4552433732313a207472616e7366657220746f20746865207a65726f2061646460008201527f7265737300000000000000000000000000000000000000000000000000000000602082015250565b6000613bb1602483612966565b9150613bbc82613b55565b604082019050919050565b60006020820190508181036000830152613be081613ba4565b9050919050565b7f4e487b7100000000000000000000000000000000000000000000000000000000600052601160045260246000fd5b6000613c2182612a16565b9150613c2c83612a16565b925082821015613c3f57613c3e613be7565b5b828203905092915050565b6000613c5582612a16565b9150613c6083612a16565b9250827fffffffffffffffffffffffffffffffffffffffffffffffffffffffffffffffff03821115613c9557613c94613be7565b5b828201905092915050565b7f4552433732313a20617070726f766520746f2063616c6c657200000000000000600082015250565b6000613cd6601983612966565b9150613ce182613ca0565b602082019050919050565b60006020820190508181036000830152613d0581613cc9565b9050919050565b7f4552433732313a207472616e7366657220746f206e6f6e20455243373231526560008201527f63656976657220696d706c656d656e7465720000000000000000000000000000602082015250565b6000613d68603283612966565b9150613d7382613d0c565b604082019050919050565b60006020820190508181036000830152613d9781613d5b565b9050919050565b7f4552433732314d657461646174613a2055524920717565727920666f72206e6f60008201527f6e6578697374656e7420746f6b656e0000000000000000000000000000000000602082015250565b6000613dfa602f83612966565b9150613e0582613d9e565b604082019050919050565b60006020820190508181036000830152613e2981613ded565b9050919050565b7f4e487b7100000000000000000000000000000000000000000000000000000000600052603260045260246000fd5b6000613e6a82612a16565b91507fffffffffffffffffffffffffffffffffffffffffffffffffffffffffffffffff821415613e9d57613e9c613be7565b5b600182019050919050565b7f4e487b7100000000000000000000000000000000000000000000000000000000600052601260045260246000fd5b6000613ee282612a16565b9150613eed83612a16565b925082613efd57613efc613ea8565b5b828204905092915050565b6000613f1382612a16565b9150613f1e83612a16565b925082613f2e57613f2d613ea8565b5b828206905092915050565b60006080820190508181036000830152613f5381876129bb565b90508181036020830152613f6781866129bb565b90508181036040830152613f7b81856129bb565b9050613f8a6060830184612d3f565b95945050505050565b6000613f9e82612a16565b9150613fa983612a16565b9250817fffffffffffffffffffffffffffffffffffffffffffffffffffffffffffffffff0483118215151615613fe257613fe1613be7565b5b828202905092915050565b6000604082019050818103600083015261400781856129bb565b9050818103602083015261401b81846129bb565b90509392505050565b7f45524337323155524953746f726167653a2055524920736574206f66206e6f6e60008201527f6578697374656e7420746f6b656e000000000000000000000000000000000000602082015250565b6000614080602e83612966565b915061408b82614024565b604082019050919050565b600060208201905081810360008301526140af81614073565b9050919050565b600081519050919050565b600082825260208201905092915050565b60006140dd826140b6565b6140e781856140c1565b93506140f7818560208601612977565b614100816129aa565b840191505092915050565b60006080820190506141206000830187612aab565b61412d6020830186612aab565b61413a6040830185612d3f565b818103606083015261414c81846140d2565b905095945050505050565b600081519050614166816128cc565b92915050565b60006020828403121561418257614181612896565b5b600061419084828501614157565b91505092915050565b7f4552433732313a206d696e7420746f20746865207a65726f2061646472657373600082015250565b60006141cf602083612966565b91506141da82614199565b602082019050919050565b600060208201905081810360008301526141fe816141c2565b9050919050565b7f4552433732313a20746f6b656e20616c7265616479206d696e74656400000000600082015250565b600061423b601c83612966565b915061424682614205565b602082019050919050565b6000602082019050818103600083015261426a8161422e565b905091905056fe0a2d2d2d2d2d2d2d2d2d2d2d2d2d2d2d2d2d2d2d2d2d2d2d2d2d2d2d2d2d2d2d2d2d2d2d2d2d2d2d2d2d2d2d2d2d2d2d2d2d2d2d2d2d2d2d2d5265676973746572696e672025732e2573206f6e2074686520636f6e7472616374207769746820746f6b656e49442025642d2d2d2d2d2d2d2d2d2d2d2d2d2d2d2d2d2d2d2d2d2d2d2d2d2d2d2d2d2d2d2d2d2d2d2d2d2d2d2d2d2d2d2d2d2d2d2d2d2d2d2d2d2d2d2d0a4142434445464748494a4b4c4d4e4f505152535455565758595a6162636465666768696a6b6c6d6e6f707172737475767778797a303132333435363738392b2fa2646970667358221220ba6297fe8c8ca9d4c95a3b4c0555f748bacbc89327cfaf8d85a7855818922e1264736f6c634300080a00333c73766720786d6c6e733d22687474703a2f2f7777772e77332e6f72672f323030302f737667222077696474683d2232373022206865696768743d22323730222066696c6c3d226e6f6e65223e3c706174682066696c6c3d2275726c282361292220643d224d302030683237307632373048307a222f3e3c646566733e3c66696c7465722069643d22622220636f6c6f722d696e746572706f6c6174696f6e2d66696c746572733d2273524742222066696c746572556e6974733d227573657253706163654f6e55736522206865696768743d22323730222077696474683d22323730223e3c666544726f70536861646f772064783d2230222064793d22312220737464446576696174696f6e3d22322220666c6f6f642d6f7061636974793d222e323235222077696474683d223230302522206865696768743d2232303025222f3e3c2f66696c7465723e3c2f646566733e3c7061746820643d224d37322e3836332034322e39343961342e33383220342e3338322030203020302d342e33393420306c2d31302e30383120362e3033322d362e383520332e3933342d31302e30383120362e30333261342e33383220342e3338322030203020312d342e33393420306c2d382e3031332d342e37323161342e353220342e35322030203020312d312e3538392d312e36313620342e353420342e35342030203020312d2e3630382d322e313837762d392e333161342e323720342e3237203020302031202e3537322d322e32303820342e323520342e323520302030203120312e3632352d312e3539356c372e3838342d342e353961342e33383220342e33383220302030203120342e33393420306c372e38383420342e353961342e353220342e353220302030203120312e35383920312e36313620342e353420342e3534203020302031202e36303820322e31383776362e3033326c362e38352d342e303635762d362e30333261342e323720342e32372030203020302d2e3537322d322e32303820342e323520342e32352030203020302d312e3632352d312e3539354c34312e3435362032342e353961342e33383220342e3338322030203020302d342e33393420306c2d31342e38363420382e36353561342e323520342e32352030203020302d312e36323520312e35393520342e32373320342e3237332030203020302d2e35373220322e3230387631372e34343161342e323720342e3237203020302030202e35373220322e32303820342e323520342e323520302030203020312e36323520312e3539356c31342e38363420382e36353561342e33383220342e33383220302030203020342e33393420306c31302e3038312d352e39303120362e38352d342e3036352031302e3038312d352e39303161342e33383220342e33383220302030203120342e33393420306c372e38383420342e353961342e353220342e353220302030203120312e35383920312e36313620342e353420342e3534203020302031202e36303820322e31383776392e33313161342e323720342e32372030203020312d2e35373220322e32303820342e323520342e32352030203020312d312e36323520312e3539356c2d372e38383420342e37323161342e33383220342e3338322030203020312d342e33393420306c2d372e3838342d342e353961342e353220342e35322030203020312d312e3538392d312e36313620342e353320342e35332030203020312d2e3630382d322e313837762d362e3033326c2d362e383520342e30363576362e30333261342e323720342e3237203020302030202e35373220322e32303820342e323520342e323520302030203020312e36323520312e3539356c31342e38363420382e36353561342e33383220342e33383220302030203020342e33393420306c31342e3836342d382e36353561342e35343520342e35343520302030203020322e3139382d332e3830335635352e35333861342e323720342e32372030203020302d2e3537322d322e32303820342e323520342e32352030203020302d312e3632352d312e3539356c2d31342e3939332d382e3738367a222066696c6c3d2223666666222f3e3c646566733e3c6c696e6561724772616469656e742069643d2261222078313d2230222079313d2230222078323d22323730222079323d2232373022206772616469656e74556e6974733d227573657253706163654f6e557365223e3c73746f702073746f702d636f6c6f723d2223636235656565222f3e3c73746f70206f66667365743d2231222073746f702d636f6c6f723d2223306364376534222073746f702d6f7061636974793d222e3939222f3e3c2f6c696e6561724772616469656e743e3c2f646566733e3c7465787420783d2233322e352220793d223233312220666f6e742d73697a653d223237222066696c6c3d2223666666222066696c7465723d2275726c282362292220666f6e742d66616d696c793d224d6f6e61636f2c204c756369646120436f6e736f6c652c20436f75726965722c206d6f6e6f73706163652220666f6e742d7765696768743d22626f6c64223e",
	"linkReferences": {},
	"deployedLinkReferences": {}
}